:100000006F90301713000000130000001300000071
:100010001300000013000000130000001300000094
:100020001300000013000000130000001300000084
:08003000130000007300100032
:1000380000000000000000007A9600009A96000078
:1000480000000000B8980000000000000000000058
:10005800BA980000BC9800000000000000000000F2
:10006800C255000000000000D0020000000000009F
:10007800C298000034960000C6980000C898000096
:10008800CA980000CC980000647200008C720000CE
:10009800B4720000DC72000004730000D8980000FD
:1000A800DA980000DC980000DE980000E098000074
:1000B800E2980000E4980000E6980000E898000044
:1000C800EA980000EC980000EE9800002C730000FD
:1000D800F2980000F4980000F6980000F8980000E4
:1000E800FA980000FC980000FE98000000990000B3
:1000F8000299000004990000069900000899000080
:100108000A990000D2820000F282000012830000E7
:10011800A4730000149900001699000018990000B3
:100128001A9900001C9900001E99000020990000EF
:1001380022990000249900002699000028990000BF
:100148002A9900002C9900002E990000309900008F
:10015800329900003499000036990000389900005F
:100168003A990000B09600003E99000040990000BE
:1001780042990000449900004699000048990000FF
:100188004A9900004C9900004E99000050990000CF
:10019800529900005499000056990000589900009F
:1001A8005A9900005C9900005E990000609900006F
:1001B800629900006499000066990000689900003F
:1001C8006A9900006C9900006E990000709900000F
:1001D8000000000000000000000000000000000017
:1001E8000000000000000000000000000000000007
:0801F8000000000000000000FF
:1002000097020120938202E0938202E0739002340D
:1002100003210500224573100530B1A81971232070
:10022000250006C006C216CAF322003093F28200EF
:10023000638402009302000816C412C81ACC1ECEB2
:1002400022D026D22AD42ED632D836DA3ADC3EDE76
:10025000C2C0C6C2CAC4CEC6D2C8D6CADACCDECEE6
:10026000E2D0E6D2EAD4EED6F2D8F6DAFADCFEDE56
:1002700003A1050009A0024573101534924037858B
:1002800000001305058073200530224573200530DA
:100290004242D2426243F243025492542255B25532
:1002A0004256D2566257F257064896482649B649F2
:1002B000464AD64A664BF64B065C965C265DB65DB2
:1002C000465ED65E665FF65F09617300203000000F
:1002D000197116CA9302000816C49302000273A093
:1002E000428006C212C81ACC1ECE22D026D22AD4F0
:1002F0002ED632D836DA3ADC3EDEC2C0C6C2CAC416
:10030000CEC6D2C8D6CADACCDECEE2D0E6D2EAD4A5
:10031000EED6F2D8F6DAFADCFEDE73110134EF0025
:10032000B031EF200003EF00103473110134138457
:1003300001960329040063040902232004007325A5
:1003400010342AC013848195044023A02400138410
:10035000C195044003A10400024573101534924076
:10036000B78200009382028073A00230A24273A081
:1003700002304242D2426243F24302549254225526
:10038000B2554256D2566257F25706489648264909
:10039000B649464AD64A664BF64B065C965C265DE5
:1003A000B65D465ED65E665FF65F0961730020301B
:1003B0000000397101436EC619A0397141536AC8F2
:1003C00066CA62CC5ECE19A0397101535AD056D29A
:1003D00052D44ED64AD826DA22DC06DE33016140FA
:1003E000828241114AC026C222C406C68282B24D10
:1003F0004101024D924C224CB24B4101024B924AB8
:10040000224AB2494101024992442244B240410188
:1004100082803D432A876373C3029377F700BDEF61
:10042000ADE5937606FF3D8ABA960CC34CC30CC764
:100430004CC74107E36BD7FE11E28280B306C3408D
:100440008A069702000096966780A6002307B700E9
:10045000A306B7002306B700A305B7002305B7001E
:10046000A304B7002304B700A303B7002303B70016
:10047000A302B7002302B700A301B7002301B7000E
:10048000A300B7002300B700828093F5F50F939681
:100490008500D58D93960501D58D61B7939627007C
:1004A0009702000096968682E78086FA9680C117AA
:1004B0001D8F3E96E374C3F8A5B73367B500FD53AF
:1004C0000D8B79E7B7877F7F9387F7F710419441CA
:1004D000B372F6003363F600BE92B3E26200639734
:1004E000720C6318D6065041D441B372F6003363E0
:1004F000F600BE92B3E262006398720A631BD604F0
:1005000010459445B372F6003363F600BE92B3E231
:1005100062006391720A631ED6025045D445B372DD
:10052000F6003363F600BE92B3E26200639A72088B
:100530006311D60210499449B372F6003363F60092
:10054000BE92B3E26200639372085105D105E30FD6
:10055000D6F61317060193970601631CF70013578D
:10056000060193D706013305F7409375F50F91E91E
:1005700082804183C1833305F7409375F50F91E184
:1005800082801377F70F93F7F70F3305F7408280D8
:100590000346050083C60500050585056313D600DF
:1005A00065FA3305D640828011059105E312D6FE27
:1005B000014582802105A105E31CD6FC014582800E
:1005C0003105B105E316D6FC014582804105C10520
:1005D000E310D6FC0145828003A5018D82809387BC
:1005E000018D9843411106C6050798C3EF10F0032B
:1005F0003C45FD173CC589E77C413CC5EF10D00C5C
:10060000B24041016F105046634505029306803E9B
:100610003347D5028967938707713365D502330560
:10062000F5021305753E3345D5023307F7023A95B7
:1006300082807D558280014582800145828001450E
:10064000828001458280411122C426C27164F16416
:1006500006C6130484539384845463679400B240A1
:1006600022449244410182801C4011048297F5B7D4
:10067000411122C426C27164F16406C61304845475
:100680009384445663679400B240224492444101EB
:1006900082801C4011048297F5B7411106C6C93FFC
:1006A000B24041016F90E00C8566B70500003785C8
:1006B000010041119307800C15479386068001467F
:1006C0009385A569130545AD06C6EF106076B24067
:1006D00041016F10D014411106C6EF107048EF4071
:1006E000D066EF00706FEF10B041EF1060436D3FC8
:1006F000EF10B041D124EF108045B24001454101D7
:100700008280411106C6C13FB2400145410182804D
:10071000411106C6EF104033B240014541018280CD
:1007200001114EC606CE22CC26CA4AC8AA89EF10AD
:10073000C06F19C1EF1020552545EF102027444107
:100740001304450063968400EF10206E014919A838
:10075000138944FF2146CE854A85EF00501E11EDD6
:10076000EF10A06C19C1EF10E053F24062444A85CB
:10077000D2444249B249056182808440E1B711E91F
:100780007D5582807D55B240224492440249410108
:100790008280411122C42A842E8526C24AC006C600
:1007A0003289AE84B53F79FD22852686A545EF10B6
:1007B00080220145231C2401230E0400231D040074
:1007C000D9B783578501011122CC06CE26CAC18B29
:1007D0002A8485EF1C5585C72EC68297AA84B24508
:1007E00019CD2A8637850100A2851305C5ADEF0016
:1007F000D057F24062442685D244056182808357F7
:10080000840193E70701231CF40083578401A18B23
:1008100091C78357A401E554A18BE1FF5C548DC3BC
:1008200022858297AA840DE58357A40193E7870068
:10083000231DF4008347C4018507230EF40055BF30
:1008400085679387F7F0FD8D231DB4008144E9BFD0
:10085000E957E310F5FAC9BF8347C5018DCF4111B0
:10086000FD1722C406C693F7F70F230EF5002A845E
:10087000014789EF1C5989E70147231D040039A06E
:1008800082972A8775D9E957E309F5FEB2402244D9
:100890003A85410182807D573A858280411106C6A2
:1008A0000347C50101EB7D55EF006077B24001457C
:1008B000410182800323450363050300B2404101E7
:1008C00002836955D5B7411106C60347C50101EB3F
:1008D0007D55EF00C074B240014541018280032381
:1008E000850363050300B240410102836955D5B712
:1008F0000CD101458280011126CA4EC656C206CED1
:1009000022CC4AC852C49389C192854A83A7C19216
:10091000639B3701F2406244D2444249B249224AC1
:10092000924A05618280EF10B02383A7C1922A8A80
:10093000638D370303A4C1925C4018401309C4FEC1
:100940005CC398C340C000C0EF10E0337C5099C333
:100950004A8582974A85EF10201C631255034A8509
:10096000EF10800EEF10003452856244F240D24402
:100970004249B249224A924A05616F10301FEF1076
:1009800060325285EF10901E4848EF00B0754A85DE
:10099000EF102015A5BF411126C206C622C44AC0C9
:1009A000138481B4130904011C4091C3829711047C
:1009B000E31C24FF8937EDB7411122C4371600002C
:1009C000B7850100138581AC930800143D48930757
:1009D0000020138781B5814613066699938545B13A
:1009E00006C6EF10E040138581AC2244B2404101BD
:1009F0006F10E062411122C426C206C64AC02A8492
:100A0000FD541C406319F400B24022449244024950
:100A1000014541018280EF10B0142A89084044CD7D
:100A20003115EF10605A4A85EF105014D9BF0111EB
:100A300022CC2A842E8532C62EC406CEEF10004E5C
:100A40003246A24509CA8547630FF600F240624468
:100A50000145056182805840938745011CC398CDAC
:100A60005CC0C0C9E5B71C406388870083C65503D6
:100A700003C7170263FAE600D4431387450198C2FF
:100A800094CDD8C3DCC9D9B79C43F9BF011126CA9C
:100A9000B2842E86894522CC06CE2A8436C6EF0043
:100AA0009073B24693074401231E94001CCC5CC88B
:100AB000A304D400F2406244D2440145056182801F
:100AC000011122CC2E84AA85094506CE32C6EF003C
:100AD000D07A11C93246930745011CCD5CC9231E4B
:100AE0008500A304C500F240624405618280411183
:100AF00022C42A84510506C6F53D2285EF00707E8A
:100B0000B240224401454101828083A781917971DD
:100B100022D406D626D24AD04ECE2EC62A8491C3DF
:100B20008297EF10F0038357C401AA8991CFFD1774
:100B3000231EF400EF10900383A74191014591CB50
:100B400022858297014531A0B24799EBEF10100240
:100B50007955B250225492540259F249456182802B
:100B6000EF10A02C2328050203469400AA85AA842E
:100B7000130544016D3DB247635CF0001389C40462
:100B8000700081454A85EF10406A4A85EF10C05CCD
:100B90004E85EF10A07DEF00507E885851DD55BF87
:100BA00083A70191411122C406C626C22A8491C39B
:100BB0008297EF10E07AAA844848930744016302C1
:100BC000F5023115EF10404005442685EF10007AFC
:100BD00019C0EF00907AB24022449244014541018D
:100BE00082808357C4018507231EF4000144F1BFAE
:100BF0008547639DF502411106C622C426C24AC03C
:100C0000B2842A84EF10C0752A8913054401DD33AC
:100C10004A85231E9400EF106075EF001076B240F5
:100C20002244924402490145410182807D558280DF
:100C3000411126C2B2842E868D4522C406C62A845E
:100C4000EF007059930744011CCC5CC8B707FF0044
:100C50008507A30494005CCC23200402B240224404
:100C60009244014541018280411122C42A845105E8
:100C700006C649332285EF00305DB240224401456B
:100C800041018280797106D622D426D24AD02EC65E
:100C90004ECE52CC56CA5AC82A84EF100019AA84E4
:100CA000EF10006C83A781912A8999C322858297CE
:100CB0001C5023A8040263849702938A5403130BE5
:100CC00044019389C4045D5A8357C4018DCBFD1739
:100CD000231EF40004D083C75403230FF40083477A
:100CE000F4018507A30FF4004A85EF10206883A75D
:100CF0004191014589CF22858297014509A8B247D4
:100D00008DE3F9574A859CD8EF1040667955B2506B
:100D1000225492540259F249624AD24A424B4561E6
:100D20008280085003C75403834755036376F70056
:100D300056868945EF10803103469400A6855A8572
:100D4000FD31B247635AF000700081454E85EF10C7
:100D5000C04D4E85EF1040404A85EF102061EF00F6
:100D6000D061885801C5E30145F755B7EF10405FE2
:100D70002A899DBF797106D622D426D24ECE4AD07A
:100D80002A84EF10800AAA84EF10805D83A7019166
:100D9000AA8999C3228582971C50638F9700FD57BB
:100DA0004E859CD8EF10805C7D55B25022549254F1
:100DB0000259F249456182808347F4010149FD17D8
:100DC00093F7F70FA30FF400A9E30347E40183C7E8
:100DD00054036308F7001306E40189452685EF10E4
:100DE000E0265C4813074401638CE7021385C7FEC5
:100DF00008D083C717020549230FF4008347F40185
:100E00008507A30FF400EF10201C4E85EF1000564D
:100E10000145E30C09F82AC6EF003056324571B798
:100E20008357C4012320040201498507231EF400CF
:100E3000FD57230FF400D1BF011106CEEF10405231
:100E40001387C18D83470700850793F7F70F2300AA
:100E5000F70083A7418D81C72AC682973245F240A9
:100E600005616F10A050011106CEEF10604F13877F
:100E7000C18D83470700FD1793F7F70F2300F70095
:100E800083A7818D81C72AC682973245F2400561CA
:100E90006F10C04D03C5C18D828093780804411145
:100EA000639E0800E168938808CC93730801638B04
:100EB00003001378E8FF930E000219A8E1689388F5
:100EC000C8C1E5B713731800930E0003E30503FED2
:100ED00013732800630F0306635806023306C040ED
:100EE0009302D0020A8E814F294F6396E60733732F
:100EF000D6023356D602469303430300850F050EF0
:100F0000A30F6EFE7DF215A0137348009302B0028A
:100F10006317030093728800B3325000960279F28F
:100F2000930600032300D100854FFE8663D3FF00A4
:100F3000BE8613781801158F6313080463850200B9
:100F40006353E0007D172A86B308E500130300020F
:100F500021A88142E9B71373F600118269BF637457
:100F6000B6002300660005063388C840E34900FF49
:100F70003A866353070001467D173295118F6388C7
:100F800002006374B500230055007D1705056387D3
:100F90000302AA96130800031DA86374B600230079
:100FA000D60105063388C840E34900FF3A866353FB
:100FB000070001467D173295118FE1BF2A86B308DD
:100FC000E500CDB76374B500230005010505338640
:100FD000A640E3C9CFFEFD56FD1F6383DF0099E7FE
:100FE000AA873306E5001308000205A06378B50060
:100FF0003306F101034606002300C5000505E9BFDD
:1010000063F4B700238007018507B306F640E34980
:10101000D0FE6353070001473A9541018280411198
:1010200022C406C62A84BD3519C523A0818EB240CC
:10103000224441018280EF00505F65D900D9C5BFCD
:101040000D47AA876376C7009377350091C7AA87B3
:101050003E966397C706828093F7F50F1397870034
:10106000D98F139707015D8FB308C500AA87BD46C6
:101070003388F84063EB060393574600C156B386A6
:10108000D7029207AA970D4836963383C700BE86CB
:10109000B308D3406362180313572600F156B30612
:1010A000D7020A07BA97369665B798C3D8C398C7C8
:1010B000C10723AEE7FE6DBF910623AEE6FEC9BFB2
:1010C0008507A38FB7FE71B763F3A504B386C50088
:1010D000637FD5029345F6FF8147FD176393F500C3
:1010E00082803387F600030807003387C7002A97FA
:1010F00023000701DDB73387F500830607003307B8
:10110000F50085072300D700E317F6FE82808147AC
:10111000E5BF0DC6AA8785050387F5FF85079306FA
:10112000F6FFA38FE7FE09EB3E9685076393C700A2
:101130008280A38F07FED5BF3686F1FE82800147ED
:101140006314E600814705A0B307E5008386070026
:10115000B387E50083C70700B387F640E207E1875E
:1011600099E30507F1FE3E8582808307050003872A
:10117000050099C36385E7003385E7408280050554
:101180008505E5B7AA870387070001E73385A740F0
:1011900082808507CDBF39714AD82E895ECE62CC58
:1011A00006DE22DC26DA4ED652D456D25AD066CA91
:1011B0006AC8B30B25012A8CB68563F5AB001349C9
:1011C000F5FFFD5BC169378A01006284930AB002B2
:1011D000130B0002FD19130A8ACB39A8130750021A
:1011E0006385E704637474012300F400130514009D
:1011F000B284138614002A8483070600E5F363068D
:101200000900637F74312300040033058441F250E8
:101210006254D2544259B259225A925A025BF24B4A
:10122000624CD24C424D2161828001481307D002AA
:10123000930630021305000331A0639E5701136823
:10124000480026868307160093041600E397E7FEFE
:1012500013680801FDB76395670113688800D5B767
:101260006395D70013680802E9BF6395A700136868
:101270001800C1BF138707FDA54663E6E6040147D2
:10128000A546294539A03307A70285043E971307D1
:1012900007FD83870400138607FDE3F6C6FE038679
:1012A00004009306E002FD57631FD60483871400F1
:1012B000254693861400138507FD6367A60A8147B8
:1012C000254529433DA09306A0027D57E399D7FC0D
:1012D0009841930426009105E35307FC3307E0404F
:1012E000136808016DBFB38767028506B2979387BD
:1012F00007FD03860600930806FDE37615FF63D31A
:1013000007008147B68483860400130680060145E2
:1013100093F8B6FF6395C80013F5F60F85040386AE
:101320000400930690066305D60663C7C6069306B7
:101330008005630CD61C63C5C60493075002630F77
:10134000F61A63767401930750022300F400838732
:10135000040013051400638E071A63747501A3005B
:10136000F4001305240071B51306A0026397C700AB
:101370009C4193862400910559B7B684814761B793
:10138000930630066302D60893064006E31BD6FA9E
:1013900013682800A94699A0930630076306D60C67
:1013A00063C5C6029306F0066307D61693060007C8
:1013B000E319D6F8FD566315D700136818002147C6
:1013C000938C4500C14690411DA893065007E30346
:1013D000D6FC93088007C146E31516F71306C0062E
:1013E000938C4500E301C5FE13068006E31DC5FC92
:1013F0009041937528006392051233763601DE859D
:101400002285613CE685F5B313780801631608026E
:10141000BA879306000231A0637474012300D400DC
:101420000504FD17E34AF0FE9307F7FF6343E0006E
:1014300005473387E74005079387450063757401C7
:1014400094412300D40013051400229713060002D0
:10145000B306A7406344D000BE8561BB63747501C9
:101460002300C5000505EDB783AC0500138D4500CD
:1014700063930C00D28C66853EC63AC442C21933CF
:10148000B247AA86124822476355F00063D3A700EB
:10149000BE8613780801631F0800BA87130600028E
:1014A00039A0637474012300C4000504BA877D1752
:1014B000E3C9F6FE814763C1D702B68763D306004E
:1014C00081473305F4002A9713060002B307A740AB
:1014D00063C0F602EA8531BB3306F4006378760117
:1014E000B385FC00838505002300B6008507E1B7BE
:1014F000637475012300C5000505C9BF63747401D9
:101500002300C40013051400EDB113680804C1469C
:10151000F1B5FD14F9B9A146D1B542064186C5B56C
:10152000A38F0BFEDDB103A5418E8280411122C441
:101530004AC006C626C203A9418EEFF06F9E11CDA8
:101540001384418EAA84084019C1EFF0EFB09305CF
:1015500030042685EFF0EFA604C0B24022444A854D
:1015600092440249410182808280397126CA2ED27A
:1015700032D436D62A8654109305F007138581D5C8
:101580003EDA36C606CE22CC3AD842DC46DE2131DF
:10159000AA8603A5418E09E9138581D5F137F2406A
:1015A0006244D2442161828026868354A50113843B
:1015B000418E93E70404231DF5009307F00763F4BD
:1015C000D7009306F007138681D58145EFF0AFAFC2
:1015D0001C40239D9700E1B7378501004111130599
:1015E00005C306C65937378501001305C5C3B53F86
:1015F00037870100378501001305C5C6130707C6E5
:101600008D4605468D459537B24037850100130557
:10161000C5C8410199BF31C9E1661377F50F9386BB
:10162000C6B111C7BA9603C5060005058280C16719
:10163000938707F0E98F89CB21851377F50F3697CC
:101640000345070025058280B707FF00E98F89CB96
:1016500041859377F50FB69703C50700450582804E
:1016600061813695034505006505828003A7C18E1B
:101670005C41BA976306F50283D6270095E283A6FC
:10168000818E638FF6009386018F90426313F6007C
:1016900088C2D44354C1DC43B306E540BA9794C72B
:1016A0001045B307C7006300F50283D6270081EE1B
:1016B0009386018F8C426393A5009CC25441D4C38E
:1016C0005C413E9710C7828083A5818F37850100DA
:1016D0004111130545CD06C6493D83A54190378587
:1016E0000100130585CE5135B24083A5418F378562
:1016F00001001305C5CF41018DBD13F7C5FFE146BC
:101700002E8663F6E60693073500F19B930687FE67
:1017100063EFF6041D8F4111130687FE22C423AC2C
:10172000C18E896606C651171384C18E938606EA58
:10173000D8C394C31CC023A40700BA9723A4F18E76
:10174000C966938606EAB785010094C3D8C398C7D3
:1017500081460546938545D9138581DDEFF00FB3AA
:101760001840B240224423A8E18E41018280AA851C
:10177000378501001305C5D9CDBB411106C622C46A
:1017800026C24AC039C503A7818F1304350071985A
:101790001389818F8144636A870EB1476373F400B4
:1017A0003144FD55138581DDEFF02FB683A7018FFE
:1017B00083A5C18E8328090026853386B740B3866A
:1017C00088401388018F6368D600138581DDEFF0B0
:1017D0002FBD81445DA8B384C50003D7240003AEA8
:1017E000440061EF3307CE40930F47FF63E78F0C50
:1017F000138F4190938E418F1303840183260F0032
:1018000083A30E00138941909382418F63E66F0892
:101810001307C4003297896E3383E500938E0EEA76
:101820002322C3012324C3002320D3010546D8C0AB
:101830002391C40003264300B108630416012E96C9
:1018400018C61387C60022972320E90063F4E3003B
:1018500023A0E2000967130707EA2390E400639BD3
:10186000970083A6818E014703D6270029E219C37A
:101870002320F800138581DDEFF08FB283A701905C
:10188000B10481C7A28526858297B240224426856D
:101890000249924441018280054636972391C40053
:1018A0002320EF00E3F8E3FA23A0EE0065B7E3801E
:1018B000D7FCDC430547AE9745BF728629B7330690
:1018C000B502011122CC06CE328532C67D352A847E
:1018D00009C532468145EFF0AFF62285F2406244F9
:1018E0000561828079C183A7C18F011122CC06CE08
:1018F00026CA4AC84EC62A8491C3829783A7C18E3E
:101900001389C18E636CF40883A7818E6378F40811
:10191000FD55138581DDEFF04F9F835764FF9309D9
:1019200044FF81CB035744FF8967938707EA63012C
:10193000F70237850100130585D40539835644FF26
:10194000035664FF37850100CE85130545D631392E
:101950008967938707EA231AF4FE9387018F9843D8
:10196000231B04FE63F4E90023A037011387419091
:10197000832684FF1C434E85958F83260900B386FA
:10198000D940B6971CC3DD316244F2404249B249A6
:10199000138581DDD24405616FF08FA0F24062446F
:1019A000D2444249B249056182808280B707002053
:1019B0009386070001479387070021468C42639670
:1019C000A500131547003E9582800507C106E31761
:1019D000C7FE01458280011122CC2A842E8506CEC5
:1019E00026CA4AC84EC652C4AE89328AC1372A892D
:1019F000592C83244900930749006395F4045D241E
:101A000093E909F8230434012146D2852285EFF0B9
:101A10004FF083A7819099C322858297EF005014DD
:101A2000032749009307C400F2405CC358C4232233
:101A3000F90004C86244D2444249B249224A0561CD
:101A40006F00D012844055BF83A7C190411122C4BA
:101A500006C62A8491C3829723040400EF00501025
:101A6000544418489307C400B240D8C214C31CC8D9
:101A70005CC4224441016F00700F011106CE22CCDC
:101A800026CA4AC84EC62E89AA890D37AA84484557
:101A9000ED312A841DCDD0448145EFF06FDA214627
:101AA00023043401A3040400CA852285EFF06FE605
:101AB00083A7819099C322858297EF00700AD8404E
:101AC0009307C40091045CC358C49CC004C8EF00D1
:101AD000F0092285F2406244D2444249B24905618C
:101AE000828083A7C190411122C406C62A8491C373
:101AF000829723040400EF00B0065444184893076B
:101B0000C400D8C214C31CC85CC4EF0030062285D0
:101B10002244B2404101F9B3030585007D818280F2
:101B200023940192938781DF13870708DCC39CC34A
:101B3000A107E39DE7FE3D47238EE19023A001929C
:101B400023AA01929387C192DCC39CC3828003A520
:101B50004193411106C6EFF01FAC7D159317350078
:101B6000138581DF3E950841B2401307C5FE23A0CF
:101B7000E192210541016FE0AFE841114AC006C67C
:101B800022C426C2EF00C07D839781922A89B1E7E3
:101B900003A54193EFF03FA87D15131735009387F8
:101BA00081DFBA9784439387019280439385C4FE73
:101BB0006305B4028CC383A74192238EA19099C37D
:101BC0002285829783C7C18D1305C4019385840044
:101BD00093F7F70F99EBEFE06FE42244B2409244A1
:101BE0004A85024941016F006078EF008078F5B7BF
:101BF000411122C406C62A84EF008076834744033D
:101C000093064401B240C19B93E71700230AF402F4
:101C10008347540313973700938781DFBA97D843DC
:101C200014C318CCD4C35CC893874193185C944305
:101C30002244558F98C341016F004073411122C463
:101C400006C62A84EF00C071184C5448930744011B
:101C5000D8C214C35CC81CCC834754031397370005
:101C6000938781DFBA979843631AF70013874193EC
:101C70001C5C144393C7F7FFF58F1CC32244B2408A
:101C800041016F00A06E411106C6EF00606D9387A1
:101C9000819203D70700B24005072390E700410176
:101CA0006F00C06C411106C6EF00806B13878192F4
:101CB00083570700FD17C207C1872310F700634C45
:101CC000F00023100700EF00606A83A7019281CB28
:101CD000B24041015DB5B24041016F002069B240A0
:101CE00041018280411122C403A4019206C626C28A
:101CF000EF000067AA84228591379147230AF402F6
:101D00001305C40435212285013D8547631EF50076
:101D10003C5C99EB22850D3B2685EF002065224433
:101D2000B2409244410191BD83A6C1921307440180
:101D300023A6E192D8C29387C19254C81CCCE9BFB4
:101D4000011122CC2A84510508CC48C80CD050D0AF
:101D500014D43A8658D493053002368506CE3EC652
:101D600042C4EFF0EFAD585410544C500850711766
:101D7000B72600003A96938646CE492BB2472248B2
:101D80003726000048CC230BF402A30AF402232CCC
:101D90000402814723220405232404052328040286
:101DA000230A0402232C0406232E04060147A286DC
:101DB000130606DDA2851305C404152E83A781939F
:101DC00099C322858297F240624401450561828071
:101DD0005049144D4111795706C618D954C21307FA
:101DE000450190C218CD58C92135B240410171B3A7
:101DF000011126CAB2842E86854522CC4AC806CE59
:101E000036892A843AC63EC442C246C0EFF0BFBCFF
:101E100022856244024892472247B246F2404A86EF
:101E2000A6854249D244056121BF03A50192828063
:101E300079714AD02E89AA85054522D426D24ECE64
:101E400052CC06D632C6B684BA893E8AEFF0FFC2BB
:101E50002A8409C92685EFF05F92324609ED228572
:101E6000493101442285B250225492540259F24918
:101E7000624A45618280AA865288CE872687CA85B3
:101E800022857D3DC5B7411122C406C6834745035F
:101E90002A84BD8B91C35D331305C404512C914733
:101EA000230AF402752983A6C1921307440123A6CD
:101EB000E192D8C29387C19254C81CCC4529B24044
:101EC0002244014541018280411106C6512983A760
:101ED00001920546AA8603C747033D8B631DC702CF
:101EE000D04B984F6309E60258C210C303C657038C
:101EF000938647010E06138781DF94CF32975043B4
:101F000014C290CF54C3D8CB9521EFF01FC7B24075
:101F100001454101828036859129D5BF834745031C
:101F20000547BD8B6393E704411106C622C426C250
:101F30002A843D2183474403AA842285C19B93E7D9
:101F40002700230AF402DD391305C404792C268501
:101F5000312983A70194014581C7228582970145D4
:101F6000B24022449244410182807D558280011119
:101F700006CE22CC26CA4AC82AC6DD2603A4019270
:101F80002A892285613F9304C40470008145268517
:101F9000692C2685D1224A85D12EEFF01FBE185814
:101FA000F9576314F70023280402F2406244D24434
:101FB00042490145056182805DBF411106C6EFE0DF
:101FC000AFE4B240410165B7834745030947BD8B84
:101FD0006395E704411106C622C426C22A84492615
:101FE0005448184C93074401AA84D8C214C31CCC8B
:101FF0005CC81305C404D52A26858D2E2285EFF0F2
:102000003FBF83A7C193014581C7228582970145C0
:10201000B24022449244410182807D558280411128
:1020200006C68346650305473317D70018DD094701
:10203000A30AD502230AE502413F83A7019299C36F
:10204000EFF0BFB3B24001454101828001114AC89F
:1020500006CE22CC26CA4EC652C40549638825073F
:102060008947638BF500A9E16244F240D2444249BA
:10207000B249224A056165B72A84B289D5248344CE
:1020800044032A8ABD88639A24032285EFF01FBB8C
:1020900083C709002285B394F400A30AF40204DC88
:1020A000EFF01FB55285D924F2406244D244424930
:1020B000B249224A01450561828083C7090033196C
:1020C000F900A30AF402232C2403E9BF6244F2407E
:1020D000D2444249B249224A056175B35449184D68
:1020E00093074501D8C214C31CCD5CC9828001117D
:1020F00026CAB2842E86A94522CC06CE2A8436C6AC
:102100003AC43EC2EFF03F8D9247B2462247F99B58
:10211000A304F4009307440144CC14D02324040204
:1021200058D01CCC5CC8F2406244D2440561828025
:10213000411106C622C426C22A841D24AA842285EF
:10214000713F268525242285EFF01F90B24022445E
:102150009244014541018280411106C622C426C233
:102160002A84FD2AAA842285953F834794002685E8
:10217000F99BA304F400DD2A83A7419199C322852A
:102180008297EFE06FC55C503E9508D4D12A138743
:102190000195032847003706008093870195134671
:1021A000E6FF9843631AF80293864194904205062D
:1021B00090C29306440154C358C894C31CCC8347AF
:1021C000940093E71700A304F4004D22B240224488
:1021D0009244014541018280544B0C546385B60002
:1021E0008D8EE373D6FCBA876DBF83479500858BD0
:1021F0009DCB83A70191411122C406C626C22A8421
:1022000091C38297B12AAA842285C93D2685B92A1D
:10221000834794000145F99BA304F400B240224493
:102220009244410182807D55828085476382F50218
:1022300063C5B7008DC10145828089476380F5027F
:102240008D47E39AF5FE8347950093E7270011A891
:102250005C511CC2CDB71C425CD1F1BF83479500D5
:10226000F59BA304F500C1BF797106D626D24ECEE8
:1022700052CC56CA5AC85EC662C422D44AD0EFE0D5
:10228000AFB52A8CF128B70900802A8A938401957A
:1022900093C9E9FF8D4B8040631F94002254B250D4
:1022A00092540259F249D24A424BB24B224C5285C7
:1022B000624A456165A848481309C4FE3305AC402D
:1022C000E3EEA9FC83A7819499C34A8582974A8546
:1022D00031351C4448448297EFE00FB083A7C19486
:1022E0002A8C99C34A858297834754FF13F7E70FD7
:1022F000A30AE4FE8D8BE39077FB4A85B13D61BF75
:1023000093870195DCC39CC3828082801106719AF9
:102310002A8837C7ADDE130506F8AA871307F7EE3C
:10232000631EF600A167938707882322D6F823242B
:10233000B6FA232006F92324F6F8828098C3910781
:10234000C5B737F700E01C43B7060080D58F1CC324
:10235000828037F700E01C43860785831CC3828098
:1023600021651305058073150530828073100530D3
:1023700082801387019618439387019619E323AC53
:10238000A19423AEB194054798C365BF2A878147BE
:1023900018436314A7003E8582808507D5BFB70721
:1023A000EFBE37E700E0938707083CC7014582800E
:1023B000378501004111130585DD06C6EFF0EF9A60
:1023C000B240014541018280411122C426C24AC067
:1023D00006C62A84FD5437A901007D1463189400B1
:1023E000B24022449244024941018280130509AE61
:1023F000EFF0AF97DDB7011122CC004126CA4AC8E1
:102400004EC606CEAA8437890100B7890100631938
:102410009400F2406244D2444249B249056182804C
:102420009305C4FE13050954EFF02F941C406386F6
:10243000970013854954EFF04F930040C9BF4111F5
:1024400006C622C426C24AC02E89EFE0BFD32A8422
:10245000EFF07F838324090063902403EFF09F84CF
:10246000A14763C3870011E021442285B240224482
:102470009244024941018280138544FFEFE09FD0DE
:102480006353A4002A848440C1BF7971054506D6F0
:1024900022D426D24AD04ECE52CC56CA5AC85EC694
:1024A00062C466C26AC0EFF06FD0B7890100130939
:1024B00045002A84CA851385C9085137AA85AA848C
:1024C000378501001386C90813054509EFF0EF8928
:1024D0002685DD3D378501001305850DEFF0EF887A
:1024E0004040B7890100054A894A378B0100B78B04
:1024F0000100378C0100B78C0100378D010063119A
:102500008902B250225492540259F249624AD24A84
:10251000424BB24B224C924C024D014545618280A8
:102520000347940213858911930644FF2146A6852B
:10253000EFF0AF838347840213854C12BD8B638E0B
:10254000470113050C13638A57011385CB1391C7F9
:1025500011476396E70013058B14EFF00F814C4C85
:1025600093073002AE8603C706006306F7021050D9
:10257000930740060848B295B386D540B386F60265
:10258000585C5C50898D13054D15B3D6C602EFE03B
:10259000DFFD0040ADB78506F9B77971094506D66C
:1025A00022D426D24AD04ECE52CC56CA5AC8EFF0C8
:1025B000EFBF93094500378901002A84CE851305B2
:1025C000C902B53DAA85AA84378501001306C90250
:1025D00013058503EFE07FF92685EFF0FFDE3785F1
:1025E000010013054505EFE05FF84040378A010020
:1025F000B78A010037CB0100639D8900B250225495
:1026000092540259F249624AD24A424B014545610D
:102610008280035704011C44930644FF130984007D
:1026200036C63AC44A856306F902EFF03FD6224720
:10263000B246AA872146A6851385CA06EFE0FFF2B7
:102640004A85EFF05FDB1305CBD7EFE01FF20040C8
:1026500065B7EFF0BFD32247B246AA872146A685C9
:102660001305CA07EFE07FF0DDB77971114506D693
:1026700022D426D24AD04ECE52CC56CA5AC8EFF0F7
:10268000EFB293094500378901002A84CE851305EE
:1026900009E7EFF0DFDAAA85AA843785010013067F
:1026A00009E7130585E7EFE05FEC2685EFF0DFD162
:1026B000378501001305C5E9EFE03FEB4040378A5D
:1026C0000100B78A010037CB0100639D8900B25039
:1026D000225492540259F249624AD24A424B01456D
:1026E000456182801C4413098400930644FF184806
:1026F0006309F9024A8536C63AC4EFF03FC922475A
:10270000B246AA872146A6851385CAEBEFE0FFE50E
:102710004A85EFF05FCE1305CBD7EFE01FE5004011
:102720006DB72146A68513054AEDEFE01FE4C5BF4E
:1027300079710D4506D622D426D24AD04ECEEFF07E
:10274000EFA6B7890100130945002A84CA851385BD
:1027500089FCEFF0DFCEAA85AA84378501001386B5
:1027600089FC130505FDEFE05FE02685EFF0DFC58E
:1027700037850100130545FFEFE03FDF4040B78993
:102780000100631A8900B250225492540259F2494E
:10279000014545618280930644FF1305840036C6D7
:1027A000EFF0DFBE034834015C48B246AA882147F7
:1027B0002146A68513854901EFE03FDB0040D1B7F4
:1027C0007971154506D622D426D24AD04ECE52CCA7
:1027D00056CA5AC8EFF08F9D93094500378901000A
:1027E0002A84CE85130589EEEFF07FC5AA85AA84D9
:1027F00037850100130689EE130505EFEFE0FFD6DC
:102800002685EFF07FBC37850100130545F1EFE029
:10281000DFD54040378A0100B78A010037CB01007D
:10282000639D8900B250225492540259F249624A7F
:10283000D24A424B01454561828003576401835768
:1028400044011044930644FF1309840036C63AC479
:102850003EC24A856307C902EFF05FB39247224741
:10286000B2462A882146A68513850AF3EFE0FFCFFA
:102870004A85EFF05FB81305CBD7EFE01FCF0040DC
:1028800045B7EFF0BFB092472247B2462A882146AB
:10289000A68513058AF4EFE05FCDD5B779711945A8
:1028A00006D622D426D24AD04ECE52CC56CA5AC8C8
:1028B000EFF0CF8F93094500378901002A84CE8538
:1028C000130509F6EFF0BFB7AA85AA843785010082
:1028D000130609F61305C5F6EFE03FC92685EFF0AC
:1028E000BFAE37850100130585F8EFE01FC84040F3
:1028F000378A0100B78A010037CB0100639D890048
:10290000B250225492540259F249624AD24A424B7E
:10291000014545618280035784011C44930644FFAE
:102920001309840036C63AC44A856306F902EFF0FB
:10293000FFA52247B246AA872146A68513850AFA33
:10294000EFE0BFC24A85EFF01FAB1305CBD7EFE036
:10295000DFC1004065B7EFF07FA32247B246AA87E8
:102960002146A68513054AFBEFE03FC0DDB759714C
:10297000254586D6A2D4A6D2CAD0CECED2CCEFF0F0
:10298000EF82E165130600052A841309450093854B
:1029900005A00A85EF30B117B7890100CA851385F4
:1029A00089E0EFF0DFA9AA85AA84378501001386A4
:1029B00089E0130505E1EFE05FBB2685EFF0DFA0BE
:1029C00037850100130585E3EFE03FBA4040D14968
:1029D000378A0100631B8900B65026549654065965
:1029E000F649664A0145656182801C44930644FFAE
:1029F00063E1F90298088A07BA9703A707FB8347A0
:102A000004012146A6851305CAE5EFE01FB6004084
:102A1000D1B74647EDB70111294506CE22CC26CACB
:102A20004AC84EC652C456C2EFE05FF8B7890100EB
:102A3000130945002A84CA851385C917EFF03FA002
:102A4000AA85AA84378501001386C917130545187E
:102A5000EFE0BFB12685EFF03F9737850100130502
:102A6000C51AEFE09FB04040B7890100378A0100E6
:102A7000B78A010063158902EFD01FB6AA85378592
:102A8000010013054520EFE05FAEF2406244D244FE
:102A90004249B249224A924A0145056182805C4C12
:102AA000184C1385091D930644FF2146A685EFE0C7
:102AB000DFAB8347D4FF13858A1E858B99E313050B
:102AC0004A1FEFE09FAA004075B73785010001114A
:102AD000130505DE22CC4AC84EC652C406CE26CA0D
:102AE000EFE0BFA803A48196B7890100378A0100EF
:102AF00083A7C196636BF400F2406244D24442491A
:102B0000B249224A01450561828004400946938505
:102B100049DF2685EF30112219C55040A6851305DF
:102B20008ADFEFE09FA43104E1B73785010001118E
:102B30001305056A22CC4AC84EC652C406CE26CA20
:102B4000EFE0BFA203A48196B7890100378A010094
:102B500083A7C1966361F40237C501001305C5D789
:102B6000EFE0BFA0F2406244D2444249B249224A57
:102B7000014505618280044019469385C96B26850D
:102B8000EF30511B01E950409385640013054A6CF6
:102B9000EFE0BF9D31046DBF054582805D71A2C429
:102BA00086C6A6C2CAC04EDE52DC56DA5AD82A847D
:102BB000AA9593060002254783070400B384854045
:102BC0006385D70A6383E70A0145638B04100149D3
:102BD00013070002A546B307240183870700638A11
:102BE000E7086388D7086314990883A9819683AAA4
:102BF000C196378B010063F0590903AA09001946F1
:102C00009305CB6B5285EF30F11259E54A86A285C8
:102C100013056A00EF30111241E14A9A83076A00F6
:102C2000A5EF83A989006388090413068002814502
:102C30002800EFD00FFE13098100CA86A287014544
:102C4000014713080002A548294313062002130E6A
:102C5000C005838507006384050163961505631F1E
:102C60009702A9476303F50465A00504B1B70509F8
:102C70009DB7E31C09F6A287038707001377F7FDCA
:102C800071EF378501001305856823800700A28551
:102C9000EFE0BF8D7D55A9A0B109B1BF238007002A
:102CA000050785077DB763176504378501001305A0
:102CB0004566EFE09F8B0018B7840100832509006B
:102CC000138544681109EFE05F8AE31989FE37C56F
:102CD00001001305C5D7EFE05F8929452C008299D3
:102CE000B640264496440649F259625AD25A425B8B
:102CF00061618280637E970005056392C504850744
:102D000005079CC2838507006381C5026364970041
:102D100071F595B7838E17006396C5016394CE0055
:102D20008507050785070507F1BFE37397FE238035
:102D30000700050785079106E36D97F0D1BF9CC298
:102D4000838507006389050163871501E30297FC0A
:102D500085070507F5B7E36097FE5DBF850729BFC7
:102D60008307050089E7814501456FF01FDC797114
:102D700052CC03AA819626D24AD04ECE56CA5AC801
:102D80005EC606D622D4AA8401498149378B010048
:102D9000B78B010083A7C1966363FA026304090835
:102DA0002254B250624AD24A424BB24B4E86CA8536
:102DB000F24902592685925445616FE08FB503248C
:102DC0000A0019469305CB6B2285EF30A17629E1E5
:102DD0002685EF30017519042A86A2852685EF30F5
:102DE00061751DE5639709002285EF308173AA891B
:102DF0002289CA8722870386070009EEB387274105
:102E000063D33701BE89A2851385CB6CEFE0EFF564
:102E1000310A49B783060700F5D2E311D6FE8507CC
:102E20000507D1BFB250225492540259F249624A66
:102E3000D24A424BB24B45618280411106C6EFF047
:102E4000CFE4B240014541018280411106C6EFE066
:102E5000BF87B24001454101828003A541964111DF
:102E600006C6EFD0FFD3B240014541018280B7C70B
:102E700001009387473523A4F196B7C701009387D4
:102E8000475323A6F196B7C70100938747534111D3
:102E900023A8F196B7C7010022C49387475393052F
:102EA0000021054506C626C223AAF1961384419641
:102EB000EFE0FFA008C011ED37850100130505788C
:102EC000EFE0AFEA7D542285B240224492444101B2
:102ED0008280B735000037850100930740062D47F3
:102EE000856601469385850113058579EFE05FF4DA
:102EF000AA840840B7850100814601469385057A7A
:102F0000EFD0DFB80144E1D02685EFF04F9165BFE7
:102F1000411122C406C6EFF03FC81DC5B7850100A8
:102F20009385C574138581E7EF30815EB785010015
:102F3000138581E79385C575EF30815B138581E744
:102F4000B240224441018280B785010093854575D6
:102F5000D1BF411122C42A84378501001305C57BE6
:102F600006C6EFE08FE0EFF0BFFAAA8537850100D3
:102F70001306A41B1305457CEFE02FDFB24022446B
:102F8000014541018280011106CE22CC26CA2AC603
:102F9000EFD00FF9B24519E96244F240D2443785C7
:102FA00001001305057605616FE02FDC83A74196CC
:102FB000AA841384419683A7C720638AA704930534
:102FC0003014EFD01F8021E51C4003A5C72009C99C
:102FD000EFD09F881C40814503A5C720EFD05F91AB
:102FE00000408145130600051305A41BEFD06FC2F6
:102FF00023150420232694206244F2402685D244DF
:10300000B73500009385A5E505616FD07F8EF2404E
:103010006244D244056182805D71A6C283A7419655
:1030200086C6A2C403C74702CAC04EDE52DC56DAC7
:103030005AD85ED662D466D26AD06ECE13671700B5
:103040002382E70283A7C7209384419691E7EFE0AC
:103050008FCD19C1EFF03FF3EFF09FEBEFE0EFD032
:10306000378B0100B78B0100B789010037CA010017
:10307000B78A0100378C0100B78C01009C4085465F
:103080001306F10003A5C720FD55EFD03F8185470A
:10309000631AF5000309F100ED4780406319F90058
:1030A00008D0E9BF8840FD55EFD03FA6C1BF1C50F6
:1030B0006392A7029307B0056315F90089471CD0F6
:1030C00075BF23200402E30B09FAA547631BF9121D
:1030D0000149CDA00947E398E7FE232004029307A6
:1030E00010046314F90483556402C9D9FD15C2059F
:1030F000C1812313B4029307A41B13070005B385F2
:10310000E502130600053E859385A502A295EF30E2
:103110000120EF3001411375F50F2305A420A3050D
:10312000A4202285EFF0FFE291BF930720046316ED
:10313000F90283568402835764021387F6FF63DA29
:10314000E70085072313F4029307A41B8355640249
:103150006DB78DD62313E402C5BF930740046310F7
:10316000F9028347B42099DB1385897AEFE0EFBF3A
:1031700098408347B720FD17A305F72001B79307B1
:103180003004E312F9F48347B4200347A420E3F7A3
:10319000E7EE3E948305A41B1385CA7AEFE0EFBCEB
:1031A00098408347B7208507C1BF1385897AEFE030
:1031B000CFBB050980408347B420E348F9FE1305DF
:1031C000CAD7EFE08FBAEFF03F9D85471304A41BE9
:1031D0006315F5002285EFF0BFB8EFF07FD32286AC
:1031E000AA8513854C7CEFE04FB880401305A41BE3
:1031F000EF3021331375F50F2305A420A305A42078
:10320000B5BD9307F0076305F900A1476315F908F9
:103210008347B420E38407E60346A420FD1793F711
:10322000F70F7D161376F60F2305C420A305F420AF
:1032300063F8C7049385B71B1385A71B1D8EA29542
:103240002295EFD07FE89C4013850B7B03C7A72016
:103250003E97230D071A83C5B7209385A51BBE95FE
:10326000EFE0AFB09C4003C4B7209C4083C7A720C9
:10327000E3C687E01385897AEFE02FAF0504F5B741
:1032800013058B7BEFE06FAE9C4003C7A720BA9776
:10329000238D071AE5B335478347A4206305E9006A
:1032A00029476313E910A1CF035984029147130DF5
:1032B000A41B63FE2709930DA41613060005EA85D7
:1032C0006E85EF30610205CD1309A4024A8513090A
:1032D000090513060005CA85EF306103E3982DFF49
:1032E0001306000581456E85EFD0AF920346A420FA
:1032F000EA856E85EF30A10195472314F4028357C8
:1033000084022313F402EFF03F8985476312F5022C
:103310009C4083C74702858B89C71305CAD7EFE056
:10332000CFA488408345A5201305A51BEFF01F8778
:10333000EFF01FBEEFE06FA380401306000581454C
:103340001305A41BEFD0EF8C2315042005BB6301EC
:1033500009021305F9FF930700053305F50213066B
:103360000005EA851305A5022295EF20F17741D9E2
:10337000930D00053305B9031306000581451305B8
:10338000A5022295EFD0EF88035584020346A420BE
:10339000EA853305B5031305A5022295EF203177A1
:1033A00083578402850791BF1307F0046374F70005
:1033B000230504200346B4208347A4206370F60845
:1033C0009305A61B1305B61BA2953386C74022950D
:1033D000EFD09FCF8C4083C7B5203387F500230DF6
:1033E000271B03C74502058B01CB9387A71BBE95FF
:1033F00013050C54EFE06F979C4003C4B7209C402A
:1034000083C7A7206346F40298408347A7208346DA
:10341000B7208507850693F7F70FA305D720230567
:10342000F7209306F004E3FBF6C423150720B9B197
:103430001385897AEFE06F930504D1B7A297238DA6
:10344000271B83474402858BE1D3CA851385CA7A3B
:10345000EFE0AF9155BF3335A00009050E05E157E8
:1034600033D7A5002300E60061150506E31AF5FE33
:10347000828001119547A307F1005C5106CEAE860C
:1034800005479305F1000546130505028297F240B2
:1034900005618280011122CC405D26CA06CEAA8435
:1034A0009305F1002685EFF0DFFC09E58347F10085
:1034B000858B81CB9C5C09C491C382977D14CDB769
:1034C0001145F2406244D244056182801C49797101
:1034D00026D206D622D44AD04ECE52CC56CA3387F4
:1034E000C500954463EBE7041C55130A0502B68A30
:1034F0003289AE892A8499C3528582972285EFF05A
:103500007FF9AA841DE5034554038D4713069100F6
:10351000CE852304F100EFF01FF4034654035C5002
:103520004A873336C000D68611062C005285829712
:10353000AA845C5499C352858297B250225426853E
:1035400002599254F249624AD24A4561828001117D
:1035500022CC26CA06CE2A84AE84994791E19147AF
:103560002307F1005C500147814605469305E100C1
:1035700013050402829719ED9305F1002285EFF0FF
:103580005FEF09E98347F100898B81C481E7094531
:1035900011A0F5FFF2406244D244056182801C55BF
:1035A000011122CC4AC806CE26CA2A841309050274
:1035B00099C34A85829785452285EFF05FF9AA84F1
:1035C00021E1930770FC2306F1008357440103288F
:1035D0004402A18BA9C7930740F9A306F100E9773C
:1035E000938707A82317F1000147814611466C0015
:1035F0004A850298AA8409E52285EFF0BFE9AA84EA
:1036000081452285EFF0BFF45C5499C34A858297C7
:10361000F240624426854249D244056182800147D6
:1036200081460546E9B71C4979714AD006D622D4AD
:1036300026D24ECE52CC56CA5AC83387C500154939
:1036400063EBE7002A84AE89B2848DE16390C70200
:10365000EFF0FFF42A89B25022544A85925402595D
:10366000F249624AD24A424B456182801C54930A15
:10367000040299C356858297BDC483474404B5CFDD
:103680002686CE852285EF00C0790E052295034B54
:103690008505032A450585452285EFF05FEB2A89DC
:1036A00021E50345540313069100CE8523046101EF
:1036B000EFF07FDA034654035C5001473336C00015
:1036C000814611062C00568582972A8911ED2285A4
:1036D000EFF05FDC2A8909E9B3F749038DCB3307A3
:1036E000FA4063619702014981452285EFF03FE688
:1036F0005C54B5D356858297B9BF034BC401032AE6
:10370000840151BF338A4741D294BA99B5B7E37C5B
:103710009AFCB3844441D29985B71C4939715ECE75
:103720006EC6BA8B06DE22DC26DA4AD84ED652D4D2
:1037300056D25AD062CC66CA6AC83387C500954D46
:1037400063E7E70A1C55AA84AE893289B68A130B4F
:10375000050299C35A858297138CC1EF894C130DCA
:103760001C00138AC1EF8DA885452685EFF03FDE4A
:10377000AA8D35E523009C0103C554036A86CE85D6
:10378000EFF07FCD33F4590383CD5403B33DB00143
:10379000910D19C433848A40637789004A8421A03B
:1037A0005684E36D59FF2286DE853305BA01EF208A
:1037B0001136DC5033868D0001478146D2855A850B
:1037C000829733098940A299AA8D11E92685EFF0E5
:1037D0007FCCAA8D09E5A29BE31809F8814D8145AC
:1037E0002685EFF0DFD6DC5499C35A858297F250D4
:1037F00062546E85D2544259B259225A925A025B8F
:10380000F24B624CD24C424DB24D216182808357C3
:103810004501397122DC06DE26DA4AD84ED652D46A
:1038200056D25AD05ECE13F7170036841DC33687A2
:1038300093060010EFF07FEEAA84F25062542685C2
:103840004259D254B259225A925A025BF24B216128
:103850008280918B8144F5D31849B387C5002A89AA
:10386000AE89328A930A05029544E368F7FC1C5539
:1038700099C35685829793F7190089CF2287854689
:103880000546CE854A85EFF05FE9AA8439E58509CA
:1038900005047D1A85454A85EFF07FCBAA8415ED96
:1038A0009307D0FA2304F100B38989408547854BFB
:1038B000330B340163ED4B0381454A85EFF03FC97B
:1038C000AA8401ED631F7A01228785460546DA85C1
:1038D0004A85EFF09FE411C5AA8481454A85EFF03F
:1038E0001FC78327C902B1DB56858297B9B7B1CB11
:1038F0000345590313069100DA85EFF0DFB503465F
:103900005903034704001C083336C0001106B29760
:10391000238CE7FE03471400A38CE7FE83274902AC
:103920000147814609062C0056858297AA8455F5E1
:103930004A85EFF03FB6AA844DF1791A0904814710
:1039400085BF834704000546A304F10083471400A4
:103950002305F100E1B7011122CC26CA4AC836C6B8
:1039600006CE2A84AE843289EFF0FFCBB24619E945
:1039700022856244F2404A86A6854249D2440561C6
:103980006FF0FFE8F2406244D24442490561828010
:10399000011122CC26CA4AC806CE2A843289930451
:1039A00005029DCD930700052306F1005C510147F8
:1039B000814605466C002685829709ED85472306DA
:1039C000F1005C50A30621010147814609466C00C5
:1039D00026858297F2406244D24442490561828042
:1039E0008545EFF0DFB6D1BF011122CC26CA06CE45
:1039F0004AC82A84EF00D001AA84814763140514C1
:103A00001C48DDCB83574401C5CB1C4CD5C783472D
:103A1000C401DDC31C4C638507128347C401638165
:103A20000712930760062306F1005C501309040295
:103A30000147814605466C004A858297AA84631532
:103A400005182285EFF01FA5930790F9A306F10052
:103A50005C500147814605469305D1004A8582970F
:103A6000AA84631305162285EFF0DFA2AA8481479A
:103A700071E983574401918B639007141848B70785
:103A8000000163F5E71485452285EFF05FACAA8459
:103A90000DE1930770FB2306F1005C50014781465E
:103AA00005466C004A858297AA8401E58547A30AEA
:103AB000F40293B7140079A09307F0F92304F100FE
:103AC0005C500D47740005462C00130504028297D4
:103AD000AA84814725E98347E1000357C100228575
:103AE0002307F4002316E400352235C53C488356ED
:103AF0008404232404001CC8054789476383E60027
:103B00008547231AF4007C48930644071CCC83475E
:103B10008405230EF4009307C405984309CB104C89
:103B20006377C70018CC03C74700230EE400A10742
:103B3000E395D7FE1C4889C783574401E39C07ECF3
:103B400081478544230AF402F240624426854249B3
:103B5000D244056182808345C400E1679386C77CB7
:103B600001479387C77C4D4603C546006311B504E2
:103B700003C856000345D400631BA80203C86600AF
:103B80000345E4006315A802E1463307D702BA975C
:103B9000984318C4984718C803D7C700231AE400ED
:103BA000984B83C7470118CC230EF40061B7050773
:103BB000E106E31BC7FABDBF014685452285EFF04C
:103BC0003FDDE30D05EAAA848147ADBFA30A0402E5
:103BD00085478DBF01119307A0052304F10093D7FA
:103BE0000501A304F10093978500C205C181A1815D
:103BF000DD8DFD572306F1005C5106CE2315B10083
:103C000036872C00B2861305050215468297F240CE
:103C1000056182805D71A2C486C6A6C2CAC04EDE9E
:103C200023020504A146700081452A8402C602C809
:103C3000EFF05FFA11C98147B64026449644064921
:103C4000F2593E85616182800347C10093073005C8
:103C5000E313F7FE0347D10093076004E31DF7FC6D
:103C60000347E10093074004E317F7FC0347F10023
:103C700093070005E311F7FC834701018544230303
:103C8000F40483471101A302F404E3E6F4FAA14625
:103C90007000A145228502C602C8EFF0BFF341FDC6
:103CA0008347E100E3E9F4F80347F100A147E3F4B7
:103CB000E7F88344110103492101130640028145BD
:103CC000680083490101EFC0CFF4A20493150901F4
:103CD000C58D930640027000B3E535012285EFF0F3
:103CE0007FEF814731F98347D1008546A305F4046E
:103CF0008347C10013F737006308D7008D46E31CE4
:103D0000D7F22305040419A02305E40413D72740A0
:103D1000058B854619C39306001013D7374023142B
:103D2000D404058B51E385472306F4048347E1005F
:103D3000054785878D8B6385E70889466387D708A4
:103D4000C1EB2317E40403473101C2471D8341E758
:103D50008D8385073CC84C087C000147054503C698
:103D6000C70111CE93163700A2963316C500F0CACC
:103D700003C6D70105071377F70F238CC6048907FD
:103D8000E39FF5FC9307840001478D481148F447F1
:103D900005071377F70FD9E2A107E31A07FF854755
:103DA0002302F404854749BD918723060404858BCB
:103DB00091E793070005A306F4048DBF9947E5BF7B
:103DC000930710102317F404BDBF93070010DDBF45
:103DD000231704048DB5860785839306300263F5A7
:103DE000F6002328040481BDF517B317F7009DB72B
:103DF000EC4A91CDE84763FCA500ECC783C5860576
:103E000003C307052388B704E8CA238C66040506A4
:103E10001376F60FA106E3FDC8FCBDBFBE863A8649
:103E2000DDBF7C49B3F7F50299EF9307C5060D4551
:103E3000984311C76365E60033F7E50211C7E11740
:103E400001C57D15F5B701458280011122CC26CA36
:103E50004AC84EC606CE2A84AE8932898124AA84F5
:103E600011ED0146CE851305C404EFC07FDC854704
:103E700023242405232804062302F404F240624488
:103E800026854249D244B24905618280011126CA81
:103E9000AA84328522CC4AC806CE2EC63689EFC007
:103EA0003F887D5405C55849AD477D546310F702DE
:103EB000B245E8C02685292C2A8409E92146814596
:103EC00013858404EFD0CF9723A024052285F240E8
:103ED0006244D24442490561828083C71500A3042D
:103EE000F50483C705002304F504DC417CC57C414F
:103EF0009DCF411122C4FD552A841385C70406C6EF
:103F0000EFC05FD805E17C40B85B63188700BC4711
:103F10009305840422859C43829768401305C50459
:103F2000EFC05FE5B2402244014541018280014576
:103F30008280397122DC2A84684156D2AE8A130508
:103F4000C504FD5526DA4AD84ED652D406DE328A4A
:103F5000B6893A89EFC01FD3E1541DE17C40AA84A1
:103F6000B85B630B8702BC479305840422859C439E
:103F700082970DC1E15468401305C504EFC09FDF6F
:103F8000F250625426854259D254B259225A925A5A
:103F9000216182807C40A0DB8347C10156C602C8F4
:103FA000F19B93E71700230EF1007C4052CA02CC2C
:103FB000BC476C002285DC4382974DDD8347C101FD
:103FC00002C64EC8F19B93E72700230EF1007C4008
:103FD0004ACA02CCBC476C002285DC43829741FD73
:103FE00051BF397122DC2A84684152D42E8A1305CC
:103FF000C504FD554AD84ED606DE26DAB289368982
:10400000EFC05FC821ED7C40B85B630C8700BC4704
:10401000AA84930584049C432285829715E57C40FD
:10402000A0DB8347C10152C64EC8F19B93E737001E
:10403000230EF1007C404ACA02CCBC476C002285AA
:10404000DC438297AA8401E56155EFC05FFD6840BB
:104050001305C504EFC01FD2268529A06155EFC006
:104060001FFC0145F2506254D2544259B259225AAF
:1040700021618280014582802859B28501466FF016
:104080005FF6285981456FF0DFF5B28501466FF084
:104090005FF581456FF0FFF4014582802D4758C9D7
:1040A000374700001307270858D937470000130780
:1040B000870718DD37470000130747072324050249
:1040C000232605022328050258DD0D466FC02FEB7D
:1040D000314758C9374700001307270958D93747D0
:1040E00000001307A70818DD3747000013078709EA
:1040F00023240502232605022328050258DD0D4648
:104100006FC0EFE705456FD03FEB1C49A84313058F
:1041100045056FC03FC61C49FD55A843130545051D
:104120006FC05FB60849411106C62841284905C23B
:1041300001CBEFF01FE011C91145B240410182806F
:10414000B2860146EFF0FFE965D90145FDB7B688B3
:104150004686BA868145FDB73C41411122C4B84725
:104160003684B286B385E502A85F06C633068702A9
:10417000EFF06FFE11C101442285B240224441019B
:1041800082803C41411122C4B8473684B286B3854F
:10419000E502A85F06C633068702EFF02FB311C110
:1041A00001442285B240224441018280C147638795
:1041B000F500C947638FF500014582803C417D557C
:1041C000B9C731C6B84758C2F843FC4718C21CC625
:1041D000E5B734411C425042B85E7D556369F60232
:1041E0001DC7411106C66394C70013861700AC466D
:1041F0001D8E3A853306B602B385B702EFF0AFC223
:10420000B2403335A0003305A04041018280828056
:10421000B7470000938747125CD1B74700009387E8
:1042200067111CD5B74700009387A7105CD5B74727
:104230000000938747101CDDB72709009387077C90
:1042400008D95CDD0145828079714AD02A8913053D
:10425000C00706D622D426D24ECE52CC56CA5EC64F
:10426000AE8AB28B5AC8EFD04FD12A8413054007CB
:10427000EFD0AFD0AA844A85EFC0DFF00505EFD0BC
:10428000CFCFAA895685EFC0FFEF0505EFD0EFCE5F
:104290002A8A630204101306C00781452285EFC0F5
:1042A0003FDA130B44050146CA855A85EFC05F9873
:1042B0006380040E638E090C630C0A0C130640071E
:1042C00081452685EFC0DFD74A85EFC0BFEB2A8640
:1042D000CA854E85EFC0FFE35685EFC0BFEA2A8648
:1042E000D6855285EFC0FFE24A85EFC0BFE94E9503
:1042F000230005005685EFC0FFE852952300050016
:104300005685EFC0EFC128C841C55849B147631170
:10431000F70823A04403DE85EFF03FBC3C4823A010
:10432000340124DCA0CB20C0A0C02685EFF0CFEB69
:1043300025E19C4C98482D463CC43357F7027CC479
:1043400085475CC8B7470000938727185CD8B747F4
:104350000000938787151CDCB74700009387C71AB6
:104360002324040223260402232804025CDCCA85D9
:10437000228578C0EFC0AFC02285B250225492543B
:104380000259F249624AD24A424BB24B456182809D
:104390005A85EFC07F8D2285EFD0CFD42685EFD010
:1043A0006FD44E85EFD00FD45285EFD0AFD30144F8
:1043B000E1B785670111938747802314F100B74760
:1043C0000F00938707243000814606CE2315010095
:1043D0003EC6EFF07FE7F24005618280411106C6DC
:1043E00022C426C22A84245DEFC08FB2130544057F
:1043F000EFC09F878850EFD0EFCE8840EFD08FCEB0
:104400002685EFD02FCE2285EFD0CFCDB2402244EB
:1044100092440145410182805971A2D42E84E16504
:10442000CAD061462A89938505A5280886D6A6D2D2
:10443000CECED2CCD6CADAC8DEC6E2C4E6C2EAC064
:104440006EDEEF10D16C854763EB270337950100D3
:10445000130545A8EFD06F91200804183789010093
:104460000C401305C96C1104EFD02F90E31A94FE91
:1044700037C501001305C5D7EFD02F8F9DA883291D
:104480004400B79501009385C5A84E85EFC0EF8223
:1044900051E58947631DF900B79501009385C5FE75
:1044A00037950100130545A9EFD02F8C99A003A5DE
:1044B00081970C441384819709C52EC6EFF01FF233
:1044C000B24537950100130505AAEFF09FEE08C02D
:1044D0000DC13C5D8C4B23AEF1969043B7071000A5
:1044E00063F8F50237950100A981130585AAEFD07D
:1044F000CF87B650265496540659F649664AD64A8E
:10450000464BB64B264C964C064DF25D656182805B
:1045100037950100D181130505ADD1BF138AC1972D
:1045200083270A009384C19791E73795010013050B
:1045300085AF99B7B79501009385C5B24E85EFC099
:10454000DFC2631105128D4763E72701B7950100AC
:1045500093850504B1B7084401468145EF20C11693
:104560002A8B484401468145EF200116AA89EFD0E5
:10457000CFA02A896303050EAA8603250A004E866A
:10458000DA85EFE0BFF42A8431E583270A00379506
:104590000100CE868C435A86130545B3EFC0FFFC5D
:1045A00037950100130545B8EFC03FFCC14A81446F
:1045B000B79B0100379C0100B79C0100378D0100BB
:1045C000B7CD010063E3340337C501001305C5D738
:1045D000EFC0BFF94A85EFD0EFB0E30C04F0379598
:1045E0000100A285130585FBC1B5B3856401138560
:1045F0000BBCEFC09FF7268A637C3A05B3074901DD
:1046000083C5070013858CBCEFC03FF6050AE39510
:104610004AFF268A9307E00563723A03330749018C
:1046200083450700138705FE63F4E7009305E00266
:104630001305CD7AEFC07FF39307E005050AE31D6C
:104640005AFD1385CDD7EFC05FF2C104C10A9DBFEB
:1046500013050CBDEFC07FF155BF37950100130561
:1046600045BD19BDB7950100938545BE4E85EFC088
:10467000DFAF55E18D4763E72701B79501009385CB
:10468000850839BD084401468145EF20E1037519CD
:10469000AA8A4A85EFD06F8EAA8961D13104014A76
:1046A000084001468145EF202102B387490123805C
:1046B000A700050A1104E3652AFF8840CE864A86D2
:1046C000D685EFF0CF942A8429E59C4037950100E8
:1046D000CA868C4356861305C5BEEFC01FE93795C1
:1046E0000100130505C3EFC05FE88144379A01005C
:1046F000B387990083C5070013050AC48504EFC07A
:10470000DFE6E3E724FF37B501001305C513EFC06B
:10471000DFE54E85C9B5B7950100938545C44E8543
:10472000EFC0BFA431E98D4763E72701B7950100CA
:104730009385050EB5B3084401468145EF10D17845
:10474000AA84484401468145EF1011782A862AC67A
:1047500003250A00A685EFE01FED2A84B246E31088
:1047600005E883270A003795010026868C43130548
:10477000C5C4EFC09FDFB5BBB7950100938505C9E0
:104780004E85EFC09F9E35ED89476315F9020325DD
:104790000A0093057101EFE0DFCD2A84E31105E4FF
:1047A00083270A0037950100034671018C431305E6
:1047B00085C935BB91476311F90408440146814519
:1047C000EF109170AA89484401468145EF10D16FDE
:1047D0001376F50F2A898840B3353001EFF04F9BEF
:1047E0002A84E31E05DE9C40379501001376F90FFD
:1047F0008C43130505CDE5B9B79501009385851266
:1048000045B1B7950100938585D04E85EFC0FF95E2
:104810006316052089476317F900379501001305D2
:1048200005D199B90844B7950100938505D5EFC026
:10483000DF9365F59C401305001083A90701EFC0C5
:10484000DFF3AA8A13050010EFC03FF32A8B639AA7
:104850000A0037950100130545BDEFC01FD1014483
:10486000EDA8E3080BFE014A9307001033874A01C5
:1048700023004701050AE31BFAFE9C40379501001F
:104880004E868C43130545D5EFC03FCEEFB0DFD445
:104890002A8988404E868145EFE0FFD82A8479E155
:1048A000EFB09FD38967330525419387077133762E
:1048B000F5022947B355F50237950100130505D8D0
:1048C0003356E602EFC07FCA9C40379501004E8602
:1048D0008C43130505DE0149EFC03FC9EFB0DFCFC0
:1048E000AA8B6369390961E0EFB01FCF896733058F
:1048F0007541938707713376F5022947B355F50261
:1049000037950100130505E53356E602EFC0FFC5F4
:104910009C40379501004E868C43130505EB0149F9
:10492000EFC0BFC4EFB05FCBAA8B63683909631CCB
:10493000040CEFB07FCA896733057541938707710F
:104940003376F5022947B355F50237950100130573
:1049500085F53356E602EFC05FC15685EFC09FF87C
:104960005A8595B9AA8537950100130505DBEFC077
:10497000DFBF99BF130C0910528663F48901338697
:1049800029418840D686CA85EFE07FE82A8405C59C
:104990009C4037950100930600108C434A8613050E
:1049A000C5E0EFC09FBC37950100A285130505E85F
:1049B000EFC0BFBBB1BF62892DB7930C0910528CF9
:1049C00063F49901338C294188406286CA85DA866E
:1049D000EFE0DFAF2A846286DA855685EF10D110CA
:1049E0001DC9379501001305C5EDEFC01FB80D4473
:1049F0009C4037950100930600108C434A861305AE
:104A000085F1EFC09FB637950100A285130585F8A3
:104A1000EFC0BFB599B769FC668901BF3795010042
:104A2000130545A8EFC07FB420080418378901009A
:104A30000C401305C96C1104EFC03FB3E31A94FE98
:104A400005BC411106C6EFB0BFCD814719C5544919
:104A5000054781476393E6003C5DB2403E854101D6
:104A600082807C4123280504232A050403A3070030
:104A700063050300930585040283014582800111CB
:104A80004AC806CE22CC26CA4EC652C436898DCE1E
:104A9000AA843284B309D600294A83470400639C60
:104AA000470183D7A40193F7070491C7FC40B5459C
:104AB00026859C478297FC408305040026859C47F9
:104AC00005048297E31B34FDF24062444A85D244D8
:104AD0004249B249224A05618280411122C406C678
:104AE00026C24AC093F705102A8499C70357850147
:104AF00061551377071049C713F7054019C70357C6
:104B0000840161551377074025CF13F705049304FB
:104B1000000409E78354A40193F40404384893F58E
:104B2000F50F231DB4003DE3B1C768442981420558
:104B300041813105EFC07FC470442A893105298243
:104B40004206418281452320A900EFC06FCF232276
:104B500009008357A401232409002328240593E78F
:104B60000710231DF4007C4013060010C145DC43F0
:104B7000228582978357A4010145DD8C231D940073
:104B8000B24022449244024941018280E5D793E534
:104B90000510231DB400F9BF0948AA87638D0501DC
:104BA0000D48638205030547639FE50403578501AC
:104BB0001377F7FD29A00357850113670702239C8C
:104BC000E7000145828032876DDE5042744583459F
:104BD000C5012982A9824206C2064182C1826304BC
:104BE000D6001D458DE51443B4C75443F4C7F1D92D
:104BF0003E85FC43411106C69C43BA858297B2406C
:104C00000145410182807C4103A3470002838280E9
:104C1000011122CC06CE26CA4AC84EC652C456C27C
:104C20005AC03684A9CE8357A501AA89328993F741
:104C30000710B6849DE37D5AA94A83A749044E858F
:104C4000DC478297630945012300A900FD1405098B
:104C500063035501FDF0058C1DA02449368A854A61
:104C6000EFD00FF083D7640003D744002A86944422
:104C70006312F70285E2EFD06FEF330444412285DF
:104C8000F2406244D2444249B249224A924A024B1B
:104C90000561828098403E97034B070003A7C90433
:104CA0008507C2072983C18342072393F400418308
:104CB00063E4E700239304006394560123A40400F3
:104CC0003285EFD0AFEA7D1A230069010509E319A7
:104CD0000AF865B70347C501854763E2E7048357D0
:104CE000A50193F7071085CF411122C42A842849D2
:104CF00006C6EFC03FBF8357A401232804042285C2
:104D000093F7F7EF231DF4007C4013060010C54510
:104D1000DC438297B2402244014541018280014533
:104D2000828037570000130727A618D53757000091
:104D30001307A7AD58D537570000130747CD18D92B
:104D400037570000130707C158D93757000013071A
:104D5000E7A718DD37570000130787B94206232A53
:104D60000500232005022322050258DD34C14182BB
:104D70006FB0FFA093F5F50F8547639AF50C797135
:104D800022D4204926D24AD04ECE06D652CCAA846E
:104D90007D598549FC402685DC4782972A8A630D28
:104DA0002505EFD0EFDB035744001C40BA97238062
:104DB000470183574400F8448507C2072983C1830C
:104DC00042072312F400418363E4E7002312040046
:104DD0008356640083574400639DD7008507C2074C
:104DE000C1832313F4002324340163E4E700231375
:104DF0000400EFD0AFD779BF9C50B1C3EFD04FD6EE
:104E000003574400835564006363B702B305B7409A
:104E10002EC6EFD0AFD5225403A30402B245B25040
:104E20000259F249624A2685925445610283FC4444
:104E3000998DA983C207C183B385B740D1BFB25052
:104E4000225492540259F249624A4561828082801A
:104E5000797122D426D24AD04ECE06D6AA84AE8903
:104E60003289014433068900636AD4002285B25036
:104E7000225492540259F24945618280FC40B38524
:104E800089002685DC4336C6829701E51104B246C7
:104E9000D1BF0144E1BF7C412E87B28503A3070047
:104EA000630A0300054611C7854681476315D7008D
:104EB00001460283E9573E858280494758C93757E2
:104EC0000000130707E558D937570000130767E9B3
:104ED00070C1232005022322050223240502232674
:104EE000050223280502232C050258DD34C10D4696
:104EF0006FB0FF887C41011106CEDC4370008297C1
:104F0000F2403245056182807C4103A307006304BF
:104F1000030005460283695582807C4103A3070094
:104F2000630403000146028369558280797106D6C5
:104F300022D426D24AD04ECE52CC56CA5AC8854721
:104F400063DDA71A83AA4500AE84B7950100AA893C
:104F50009385C5A85685EFB04FD62A8421ED8D479D
:104F60006393F9048844EFB0AFFB23A0A1981DC55B
:104F7000379601001306061E8C4437950100130571
:104F8000851EEFC08FDE2285B25022549254025902
:104F9000F249624AD24A424B45618280379601000B
:104FA0001306861DD1BF379501001305851FEFC07D
:104FB000CFDBD1BF138B0198032A0B001389019813
:104FC000631A0A003795010013054522EFC0EFD997
:104FD0007D5455BFB7950100938505255685EFB0E3
:104FE000CFCD2A8439E98D476394F9048844EF10C2
:104FF000412FAA855285EFF03FF115C5B796010004
:105000009386861D83250900884436C62EC4EF107A
:10501000412DB246A2452A86379501001305852504
:10502000EFC0AFD48DB7B79601009386061ED9BFE7
:1050300037950100130545279DBFB795010093855E
:10504000C5B25685EFB06FC72A841DED8D476398B2
:10505000F9028844EF10E128AA855285EFF09FE914
:1050600083250B002AC688442EC4EF1081272A8688
:1050700037950100B246A2451305452A55B7379525
:1050800001001305C52C25B7B79501009385453060
:105090005685EFB08FC22A8429E98D476392F904BF
:1050A0008844EF100124AA855285EFF01FE705C55B
:1050B000B79601009386861D83250900884436C66D
:1050C0002EC4EF1001222A8637950100B246A24570
:1050D0001305C530B1B7B79601009386061EE9BF28
:1050E0003795010013058532D9B5379501001305B1
:1050F0008535EFC08FC7014479B537950100130599
:105100008538EFC08FC6379501001305851FEFC0A6
:10511000CFC5379501001305C52CEFC00FC53795D6
:10512000010013058532EFC04FC437950100130508
:105130004527C1B7797122D426D24AD04ECE06D6A1
:10514000AA84AE893289014433068900636AD40097
:105150002285B250225492540259F249456182800C
:10516000FC40B385890026859C4736C6829701E5B9
:105170001104B246D1BF0144E1BF78410323470087
:10518000630C030099E1B2850283854681476396EB
:10519000D50003230700C5BFE9573E8582804947F4
:1051A00058C9375700001307471318DD3757000059
:1051B0001307A71770C12320050223220502232409
:1051C00005022326050223280502232A050258DDAD
:1051D00034C10D466FB0AFDA7C41011106CE9C4759
:1051E00032C670008297F2400145056182807C41A1
:1051F00003A34700630303000283695582807C4157
:1052000003A3070063030300028369558280797159
:1052100006D622D426D24AD04ECE52CC56CA5AC82E
:10522000854763D5A71C83AA4500AE84B7950100C6
:10523000AA899385C5A85685EFB02FA82A8421EDA9
:105240008D476393F9048844EFB08FCD23A2A198D2
:105250001DC5379601001306061E8C4437950100C4
:105260001305851EEFC06FB02285B25022549254B0
:105270000259F249624AD24A424B456182803796CE
:1052800001001306861DD1BF379501001305053BAC
:10529000EFC0AFADD1BF138B4198032A0B00138928
:1052A0004198631A0A00379501001305C53DEFC008
:1052B000CFAB7D5455BFB795010093850525568525
:1052C000EFB0AF9F2A8439E98D476394F90488448D
:1052D000EF102101AA855285EFF07FF115C5B79631
:1052E00001009386861D83250900884436C62EC496
:1052F000EF00317FB246A2452A863795010013059B
:105300008525EFC08FA68DB7B79601009386061E40
:10531000D9BF37950100130585409DBFB7950100A2
:10532000938545BE5685EFB04F992A8439E591475C
:105330006390F9048844EF00D17A2AC4C844EF008E
:10534000517AA2452A865285EFF01FE983250B008A
:1053500088442EC6EF00F1782AC4C844EF00717863
:10536000AA86379501002246B2451305854351BFF1
:10537000379501001305C54521BFB79501009385F9
:1053800045305685EFB06F932A8429E98D476392A3
:10539000F9048844EF00F174AA855285EFF03FE6E6
:1053A00005C5B79601009386861D832509008844AC
:1053B00036C62EC4EF00F1722A8637950100B24638
:1053C000A2451305C53035BFB79601009386061E6A
:1053D000E9BF379501001305054A5DBD379501000A
:1053E0001305054DEFC06F980144BDBD3795010011
:1053F00013058538EFC06F973795010013050550E9
:10540000EFC0AF963795010013054553EFC0EF95F8
:105410003795010013058557EFC02F95379501008B
:105420001305055BC1B719CE7841B28783D5070054
:10543000184303562600411106C60297B2400145A3
:10544000410182807D5582801387410078432E86FA
:10545000AA850323070013854100028313874100B7
:1054600078432E86AA8503234700138541000283D3
:10547000138741007843AA851385410003238700E1
:1054800002830DC611476393E6027C4183550600F3
:1054900001119C4706CE36C632C482972246B246D8
:1054A000F2402311A600368505618280814636854B
:1054B000828005C6B28711466391C602784103D641
:1054C000270083D507005843011106CE36C6029740
:1054D000B246F240368505618280814636858280FB
:1054E000411106C6938741004947D8CB3757000082
:1054F00013072748D8DB375700001307274B98DFDF
:105500003757000013076742ECC3B0C3AA850D46A6
:105510001385410023A0070223A2070223A4070248
:1055200023A6070223A80702D8DFEFB04FA5B24099
:1055300001454101828037150020130545C3828053
:1055400037350020130545C3828003A7C1808967D2
:10555000938707713357F702411106C622C4B7E794
:1055600000E0C1562386D7402387D740856623A015
:10557000D710916623A0D710B7F700E023A007004B
:1055800023A20700014690C78146D4C7814613066F
:10559000F7FF90CBD4CB3D4798C3EFB0CF8AEFF065
:1055A0009FF92A84EFF0DFF9AA852285EFC0EF94F6
:1055B0002244B240379501001305456741016FB0A1
:1055C000FFF6411122C673110134EFB0FF86B7F721
:1055D00000E023A20700EFB08F80138481988347F7
:1055E000040093F7F70F138717001377F70F2300C3
:1055F000E400130730066377F7002945EF90003782
:1056000023000400EFB03F8673110134324441019E
:1056100073002030011122CC26CA06CE4AC8834727
:1056200085000D472A84B1446387E7001147814410
:105630006393E700A94431469305C4000A85EF004F
:10564000114D0A854D218347B4010905AA948DC7E0
:105650003146930544020A85EF00714B0A856121AA
:105660002A893146930504030A85EF00514A0A85C9
:105670009D294A951105AA943C4099E33C4499CB55
:105680003146930504040A85EF0071480A85A12973
:105690000905AA947C4499E37C4899CB314693054B
:1056A000C4040A85EF00B1460A8535290905AA9484
:1056B000F240624426854249D244056182805D7190
:1056C000CAC02AD62A8932852EC686C6A2C4A6C2D8
:1056D0004EDEB284EFF01FF42A84792CB24563CEFB
:1056E000A510C1456810D52C3255A285DD2AB257C8
:1056F00003C784003E952AD691476318F70EB795E5
:1057000001009385C5676810192691456810F1243A
:1057100083C7A40103C7B401858B3337E0000A07B0
:105720008607D98F19CB03C7D4030D8B0E07D98FEA
:1057300003C7C403058B1607D98FB84019E3B844D3
:1057400019C393E70708F84419E3F84819C393E726
:10575000070413F4F70F9319840193D98941CE8577
:105760006810A52C83D584016810BD2C3146938523
:10577000C4000808EF00B1390C086810F12483C791
:10578000B4019DC33146938544020808EF003138C7
:105790000C086810552C9385040331460808EF0067
:1057A00011370C0868104D2463DB0900938504044D
:1057B00031460808EF00B1350C0868107124937762
:1057C000040491CB9385C40431460808EF003134BA
:1057D0000C086810952C325533052541B6402644F7
:1057E00096440649F25961618280B795010093851C
:1057F00045686810292C8D4511BF7955C5B7397199
:1058000022DC2A84280826DA4AD84ED652D456D228
:105810005AD032C63A8BBE8906DE2E89B68A428AB3
:1058200046CC02CE65221375F50F1377050F93074B
:105830000003324681446311F70693573500858B88
:105840002300F400935715008D8B2320F900058960
:105850002300A60062456C08B9226244F247AA847C
:105860002A9422CC3E9422862C085A85252C0DC5DC
:10587000E247B307F44063C1070283270900635678
:10588000F00028080D2A2390AA00E24785441D8CC9
:1058900023208A0023A0F900F25062542685425941
:1058A000D254B259225A925A025B2161828003A7D4
:1058B000C198014681469387C19863CBB600AE86F6
:1058C00063D305008146369711C298C32E85828026
:1058D0003306D7000346060085062300C5000546AB
:1058E000E9BF0147130600089306F007B3E7C502B6
:1058F000E207E187B3C8C50263D4B60093E707F8AF
:1059000005073308E500A30FF8FE63C4B6003A8527
:105910008280C685E1BF797122D426D24AD04ECE8C
:1059200052CC06D6AA892E8923A0050001448544BD
:10593000154A05046309440385451305F10082995E
:1059400085476312F5028347F10013F7F707B306A3
:10595000970203270900E207E1879E043697232078
:10596000E900E3C807FC2285B25022549254025940
:10597000F249624A45618280930615001307F007D9
:10598000AA876344D70009058280116763D4E600C3
:105990000D05828037072000791715056344D7006D
:1059A00013854700828023A6A19837650000130560
:1059B000E58A6FF05FF61C4103C7070083C6170036
:1059C000890722071CC13305D70082801C412A8722
:1059D00085070385F7FF1CC382801C412380B70025
:1059E0001C4185071CC1828013070010B3C6E50265
:1059F0001C41B3E5E5022380D7001C4193861700C4
:105A000014C1A380B7001C4185071CC182804111CD
:105A100022C42A842E8506C626C24AC02E89EF00DB
:105A20005130AA84AA852285EFF01FFC0840268603
:105A3000CA85EF00D10D0840B2400249269508C042
:105A4000224492444101828041114AC003A9450089
:105A500006C622C426C2635620032E84CA85AA84A1
:105A6000EFF09FF80C4488404A86EF00510A9C40B2
:105A7000B24022443E9923A02401924402494101AC
:105A800082808C4181C92244B24092440249410142
:105A90006FF0FFF72244B240924402498145410130
:105AA0006FF09FF49C41011122CC06CEB307F64063
:105AB00005472A846349F700014523200400F2408A
:105AC0006244056182802E8532C62EC4EFF0BFEE9F
:105AD000A245324648C09C413E95E36FA6FC1CC4DB
