:100000006F00300513000000130000001300000013
:100010001300000013000000130000001300000094
:100020001300000013000000130000001300000084
:08003000130000007300100032
:100038000000000000000000080300000C0300009E
:100048000000000098070000000000000000000009
:100058009A0700009C070000000000000000000054
:100068009E07000000000000A0070000000000003C
:10007800A2070000A4070000A6070000A8070000C8
:10008800AA070000AC070000AE070000B007000098
:10009800B2070000B4070000B6070000B807000068
:1000A800BA070000BC070000BE070000C007000038
:1000B800C2070000C4070000C6070000C807000008
:1000C800CA070000CC070000CE070000500300005C
:1000D800D2070000D4070000D6070000D8070000A8
:1000E800AC030000DC070000DE070000E0070000AA
:1000F800E2070000E4070000E6070000E807000048
:10010800EA070000EC070000EE070000F007000017
:10011800F2070000F4070000F6070000F8070000E7
:10012800FA070000FC070000FE07000000080000B6
:100138000208000004080000060800000808000083
:100148000A0800000C0800000E0800001008000053
:100158001208000014080000160800001808000023
:100168001A080000A40300001E0800002008000070
:1001780022080000240800002608000028080000C3
:100188002A0800002C0800002E0800003008000093
:100198003208000034080000360800003808000063
:1001A8003A0800003C0800003E0800004008000033
:1001B8004208000044080000460800004808000003
:1001C8004A0800004C0800004E08000050080000D3
:1001D8000000000000000000000000000000000017
:1001E8000000000000000000000000000000000007
:0801F8000000000000000000FF
:10020000397101436EC619A0397141536AC866CA73
:1002100062CC5ECE19A0397101535AD056D252D455
:100220004ED64AD826DA22DC06DE330161408282CD
:1002300041114AC026C222C406C68282B24D410183
:10024000024D924C224CB24B4101024B924A224A3F
:10025000B2494101024992442244B24041018280A4
:100260003D432A876373C3029377F700BDEFADE583
:10027000937606FF3D8ABA960CC34CC30CC74CC795
:100280004107E36BD7FE11E28280B306C3408A06C2
:100290009702000096966780A6002307B700A30682
:1002A000B7002306B700A305B7002305B700A304D2
:1002B000B7002304B700A303B7002303B700A302CA
:1002C000B7002302B700A301B7002301B700A300C2
:1002D000B7002300B700828093F5F50F9396850051
:1002E000D58D93960501D58D61B79396270097021A
:1002F000000096968682E78086FA9680C1171D8F49
:100300003E96E374C3F8A5B773002030379500001C
:1003100013058512EF80A01DEF10E034AA853795F4
:1003200000001305C513EF80401AEF102034AA8592
:10033000379500001305C514EF802019EF106033C6
:10034000AA85379500001305C515EF80001801A098
:10035000397106DE16DC1ADA1ED82AD62ED432D22D
:1003600036D03ACE3ECC42CA46C872C676C47AC2AD
:100370007EC0EF00505F13050008EF00F001F2505F
:10038000E2525253C2533255A25512568256724708
:10039000E2475248C248324EA24E124F824F21616C
:1003A00073002030EF100004730020302945EF1057
:1003B0009020854537050040EF00B03A73002030AB
:1003C000AA8519C5379500001305C51F6F80E00F7A
:1003D000828001118545054506CE02C202C423165E
:1003E0000100EF00501D83A7418137470F0013071D
:1003F0000724B3D7E7024C0037050040231501005E
:10040000FD172314F10089679387F7703EC2EF0050
:1004100030260546854537050040EF0030338545D9
:1004200037050040EF00D030854537050040EF002C
:100430005033F240B7E700E0056723A2E7100561FB
:1004400082805D711306C0038145480086C6A2C440
:10045000A6C23935B707002083A707074C003ED84E
:1004600083D701811385E1A73ED483D721813ED66E
:100470008D473ED0930700643EC8EF10701A83C5C5
:10048000E1A7AA84379500001305C516EF80E003A5
:1004900026853D3703C5E1A7EF20602D1537B6400F
:1004A0002644964461618280011122CC26CA06CE80
:1004B0004AC893F74500AA842E849DC38145EF1056
:1004C0005055370900202AC670009305092F26854C
:1004D000EF10303770009305092F2685EF20801E1E
:1004E000937784009DC785452685EF204023930799
:1004F0000064B387F4029385010C2685130600641B
:10050000BE95EF10B02F379500001305451CEF7016
:10051000107E9377040199C7379500001305C51D18
:10052000EF70F07C1374040401C8379500001305C4
:10053000C51EEF70D07B3137F2406244D24442494D
:1005400005618280411122C406C6EF10F07D9377C9
:1005500015002A8499C73795000013054518EF70D8
:1005600010799377240099C73795000013058519F2
:10057000EF70F0779377440099CBEF20E019118961
:1005800019C5379500001305051BEF70507641889B
:1005900009E4B2402244410182800145EF10B07964
:1005A000AA8565D92244B24001454101F5BD797162
:1005B00006D622D426D24AD04ECE52CCEF001078A6
:1005C000716513050520EF00B07C37950000130519
:1005D000C520EF70D07183A54181379500001305C8
:1005E000C521EF70906EEF10C07CAA853795000092
:1005F0001305C522EF70706DEF10A07BC94763082B
:10060000F500379500001305C523EF70506E138574
:1006100081A7EF00B02C379500001305C524EF70BB
:10062000D06A8144138A81A7B79900001949B3871A
:10063000440183C50700138589258504EF70F068A0
:10064000E39724FF2945EF70307B6133938681A7C0
:100650001386C1809385418013858180EF0070658A
:100660002A84B93B19E4379500001305C525EF70BE
:1006700010689567938707E23EC29167938787A9C1
:100680003EC44800A5473EC6EF1000605D3BEF103A
:100690003070EF10106665DD7535D5BFB7170240B5
:1006A0009843B706FFF841111367170098C3D84362
:1006B00037060200758FD8C39843B706F7FEFD16BC
:1006C000758F98C39843B706FCFFFD16758F98C3C6
:1006D000D843B70681FFFD16758FD8C39843B70678
:1006E00000ECFD16758F98C33707FF0098C723A647
:1006F000070202C402C69843C166558F98C3B71655
:10070000024005679C42F18F3EC6A24785073EC462
:10071000B24781E7A247E397E7FEB71702409C4341
:100720001397E7006356070685473EC6324785475D
:10073000631EF704B7170240D843B706C1FFFD1682
:10074000D8C3D843D8C3D84313670740D8C3D843C6
:10075000758FD8C3D843C166558FD8C39843B706A1
:100760000001558F98C3984393166700E3DD06FE9A
:10077000D843B7160240719BD8C3D84313672700EC
:10078000D8C32147DC42B18BE39EE7FE4101828062
:1007900002C669BF01A001A001A001A001A001A0A3
:1007A00001A001A001A001A001A001A001A001A041
:1007B00001A001A001A001A001A001A001A001A031
:1007C00001A001A001A001A001A001A001A001A021
:1007D00001A001A001A001A001A001A001A001A011
:1007E00001A001A001A001A001A001A001A001A001
:1007F00001A001A001A001A001A001A001A001A0F1
:1008000001A001A001A001A001A001A001A001A0E0
:1008100001A001A001A001A001A001A001A001A0D0
:1008200001A001A001A001A001A001A001A001A0C0
:1008300001A001A001A001A001A001A001A001A0B0
:1008400001A001A001A001A001A001A001A001A0A0
:1008500001A0970100209381E10117F1002013010D
:10086000617A179500001305A5AF97F5FF1F9385D3
:1008700065791386018663FAC5008322050023A0EB
:10088000550011059105E3EAC5FE138501869765BC
:100890000020938525B66377B50023200500110558
:1008A000E36DB5FEFD42739002BCFD427390428041
:1008B000B76200009382820873A0023097F2FFFFB4
:1008C0009382C27793E232007390523037F5FF1F64
:1008D000930500302318B51A372902400325C900B3
:1008E00005897DF9EFF09FDB97020000938262CCCF
:1008F000739012347300203041118545116506C68E
:10090000892BB240814511654101A1A393070004E1
:100910003CC1930700027CC1930700087CD12320CF
:100920000500B70700042322050023240500232621
:10093000050023280500232A0500232C0500232E6B
:100940000500232005022322050223240502232675
:10095000050223280502232A0502232C0502232E43
:100960000502232405042326050423280504232A3D
:100970000504232C0504232E050423200506232427
:1009800005062326050623280506232A0506232C0B
:100990000506232E05062320F508B70700022322AB
:1009A000F5082322F50AB70702003707200023269F
:1009B000F50A93070010232405082326E5082328B9
:1009C0000508232A0508232C0508232E05082320C3
:1009D000050A2324050A2328F50A232A050A232CBD
:1009E000050A8280411102C6B78602409C4A4167CF
:1009F0002E057D17F18B798D9A055D8D93F5057C1C
:100A0000C98D93E51500B70750008CCAF917324716
:100A100005073AC6984A058B01C73247E3F9E7FE56
:100A20003247B7075000FD1701456307F700B78746
:100A30000240C84B42054181410182804111B78784
:100A4000024002C6984BC166FD162E05758D718B4E
:100A50009A05598D93F5057CC98DD0CB93E535006A
:100A60008CCBB7070500B7860240F9173247050758
:100A70003AC6984A058B01C73247E3F9E7FE32458B
:100A8000B7070500FD173335F5004101828023A427
:100A9000A170014793070501B70810401303005FD9
:100AA000130EF6FF2A886316C700B797024088CB5B
:100AB0008280B306670223A817FFAE9623ACD7FE49
:100AC0006373C7013E8823AE07FF0507C107D9BF7F
:100AD000916623A2A17001479307050137030080A7
:100AE0009386065F130E005F930EF6FFAA886316C7
:100AF000C700B7970240C8C782803308C70323A83E
:100B000067FE23AAD7FE2E9823AC07FF6373D70195
:100B1000BE8823AE17FF0507C107C9BF379702403C
:100B20001C4393E717001CC38280B7970240C8CBD1
:100B30008280379702401C4FB7061000D58F1CCF1C
:100B40008280411122C4378402401C4006C693E7CC
:100B500087001CC0F93F1C408966B24093E74700FC
:100B60001CC0B7970240984F2244558F98CF984F9A
:100B70001367270098CF4101828099C537970240BB
:100B80005C4F5D8D48CF8280B7970240D84F1345A8
:100B9000F5FF798DC8CF8280B707014023AAA7400F
:100BA00082809C4513F7070113F8F70001C7D8416D
:100BB0003368E80083D5050013F7F50F39C31841F2
:100BC0008146854E3D4F930F800293028004214E53
:100BD0003396DE00B3F8C500631116039398260020
:100BE00033131F011343F3FF3377E300B3181801E6
:100BF00033E7E800639FF70550C98506E39AC6FD11
:100C000018C11307F00F6375B70454412146854E90
:100C10003D4F930F800293028004414EB398CE0063
:100C200033F715016392E8021317260001173313F7
:100C3000EF001343F3FFB376D3003317E800D98EE8
:100C4000639DF701232A15010506E319C6FD54C16A
:100C50008280E39457FA10C94DB7E39757FE2328D3
:100C60001501DDB70CC982804CC98280371702405C
:100C70005C439146B18B6385D700A1466386D70656
:100C8000B7177A00938707201CC1371602405C42D1
:100C900037070020130707009183BD8BBA9783C6DF
:100CA00007001C41B3D7D7005CC15442A1829D8A82
:100CB000BA9683C60600B3D6D70014C55442AD8297
:100CC0009D8A369703470700B3D7E7005CC55842B3
:100CD000398393763700138781813697034707005E
:100CE000B3D7E7021CC982805C4354434167C98380
:100CF000F98E37F7FF1F0327C770BD8B89071316BF
:100D0000170163480600454601476392C702C94779
:100D100039A809476389E7023D476388E7024147ED
:100D20006388E702454601476393C700C14785E6EC
:100D3000B746024083A60680C18A8DC6B7167A00E0
:100D40009386062025A00147D9B70547B547C5B703
:100D50000147BD47E9BFB7160240D4421396E600EB
:100D6000E35E06FCB7163D0093860690B387D70274
:100D70001CC101DF1C41858301BF99C537170240A3
:100D80005C4B5D8D48CB8280B7170240D84B134532
:100D9000F5FF798DC8CB828099C5371702401C4F6B
:100DA0005D8D08CF8280B7170240984F1345F5FF3D
:100DB000798D88CF828099C5371702405C4F5D8D51
:100DC00048CF8280B7170240D84F1345F5FF798D81
:100DD000C8CF8280B7170240A383A70082809357B1
:100DE000550005476399E700B71702409C4333D588
:100DF000A7000589828009476396E700B71702407C
:100E00009C53F5B7B7170240DC53D5B737170240EC
:100E10005C5793F7F7F05D8D48D78280B716024094
:100E2000DC5645777D17F98F5D8DC8D6828009C95C
:100E3000371702401C43B7060010D58F1CC38280B1
:100E4000B71602409C42370700F07D17F98F9CC20D
:100E5000828099C5371702401C575D8D08D7828064
:100E6000B717024098571345F5FF798D88D78280D0
:100E70008357050037370140930607C0C207C18377
:100E80006300D504B7060040630CD5029386064084
:100E90006308D502B7160040138606806302C502B8
:100EA000938606C0630ED50013070740630AE5006A
:100EB00037570140930607C06304D5006317E50068
:100EC00003D7250093F7F7F8D98F37170040630D44
:100ED000E500130707406309E50093F7F7CF03D751
:100EE0006500C207C183D98F2310F50083D7450061
:100EF0002316F50283D705002314F502B737014006
:100F0000138707C0630EE50093870740630AF50067
:100F1000B7570140138707C06304E5006316F50067
:100F200083C785002318F5028547231AF5008280C0
:100F30008357050091C593E717002310F5008280C1
:100F4000C207C183F99BC207C183C5BF8357C500D0
:100F500009C6DD8D2316B500828093C5F5FFFD8D92
:100F6000D5BF93C5F5FFC205C1812318B5008280A6
:100F700083560501F577FD17F58F83D66500397126
:100F800022DC06DED58F03D7C5002318F500835673
:100F9000C500FD779387379FF58F83D645002A8458
:100FA0002EC6D58F83D68500D58F83D6A500D58F45
:100FB0002316F50083574501C207C18393F7F7CF86
:100FC000D98F231AF50068085531B7470140938738
:100FD0000780B245631EF404A2578356C4006547D8
:100FE000B387E702C206C186984163D506040607A7
:100FF0000356C4004206B3D7E702130740064186F2
:10100000B3D6E702B3F7E7029206635706028E07EC
:1010100093872703B3D7E70213F77700B367D700A7
:10102000C207C1832314F400F2506254216182800C
:10103000925765B70A076DBF920793872703B3D707
:10104000E702BD8BD58FE9BF81C98357C50009670A
:10105000D98F2316F50082800357C500F977FD1755
:10106000F98FC5BF93F5F51F2312B5008280035594
:1010700005006D8D3335A000828083A78170944375
:1010800063C80602370600B04E05D18E4D8194C369
:10109000C8C38CC7B7960240D04A118A09C6114608
:1010A000D0CA23A20600DC47054523A4F170828044
:1010B00001458280854789456315F5003715014054
:1010C00055B6371501404DB6854785456315F50082
:1010D0003715014041BE3715014079B637F7FF1F7C
:1010E00081471307D77E99463306F74083450600AC
:1010F0003306F50085072300B600E397D7FE82800C
:1011000001118545414506CE02C202C402C66931BD
:101110008D472312F100C1473EC64C008D4737155D
:1011200001403EC4BD3C894537150140253E8545FB
:1011300037150140053EF2400561828041110145AD
:1011400006C6F5314145D9313565C9392D45593185
:101150000545F1391305D00359316DDDB2408545A0
:101160000545410119B9411126C2B744002003D5F4
:101170008495854506C622C4EFF0DF862A84ED29D2
:1011800013744402930740026318F40203D5849554
:10119000C145EFF03F85B78602409C42118915C1D9
:1011A000056713070780D98F9CC2B78602409C420F
:1011B00051777D17F98F9CC2B2402244924441017D
:1011C00082807D771307F77FF98FF9BF411126C21F
:1011D000B78402409C4806C622C48D9B2A849CC8C2
:1011E00021662E858145EFF07F851305401F952EE2
:1011F00014445C4098400545D58FB78620FF938600
:10120000F610758FD98F5844D98F1848D98F584800
:10121000D98F184CD98F584CD98F1850D98F585016
:10122000D98F1854D98F5854D98F1858D98F5858E6
:10123000D98F9CC09C4037071000D98F9CC0585C48
:101240001C5CD98F3840D98F7840D98F3844D98FDA
:101250007844D98F3848D98F7848D98FDCC03C4C36
:101260009CC47C4CDCC4984C7C503454B240D58F28
:10127000C166938616F4758FD98F7854D98F3858F4
:10128000D98F7858D98F38504207D98F9CCC785C49
:101290003C5CD98FDCCC03264408832704083797AD
:1012A0000240144FD18F3746DEF8130636F2F18E26
:1012B000D58F832684089244D58F8326C408D58F82
:1012C00083260409D58F83264409D58F8326840974
:1012D000D58F8326C409D58F8326040AD58F1CCFCA
:1012E0008326840A8327440AD58F8326440B8A06E3
:1012F000D58F8326C40AD58F8326040BD58F8326EA
:10130000840B2244D58FB7068000D58F1CC34101C2
:10131000828055718545716586C7A2C5A6C3CAC1BD
:10132000A93C8547B7440020239CF494013D3747EE
:1013300002408327078009641304047193E7470080
:101340002320F780EFF04FDB37990240EFF00FFDDD
:101350007D14420429454180292409C483270900BA
:10136000858BFDF74800EFF06FDA8567938707807C
:101370003ED2A1673ECC85473EC2BEC813070020BF
:10138000B70700023AD63EC53ED537070080C16791
:101390003ADE3ED783D5849537072000B707400053
:1013A0003AC93ED91307000889673ACD3EDB1307D7
:1013B0000004916748003ACF3EDF02D002D882C4D1
:1013C00082CA82CC02C302D311353705018085451C
:1013D00013051504EFF06FFABE402E449E440E49EB
:1013E000696182804111B797024022C4C04B06C692
:1013F0001317F400635F07021377040415C383A671
:1014000041709042635106041377040811C7130713
:101410000008D8CB23A4070013050004EFF0EFF079
:101420009377140081C70545EFF02FF04165EFF089
:10143000CFEF635E0400053B2244B24037050080D5
:1014400041016FF08FEEDC4623A2F170F1B7B2409C
:10145000224441018280011106CE22CC2AC64D31A0
:101460003245375400207535B755002037550020D8
:1014700009469385056913050563EFF04FE1B7153C
:101480000020130504651146938505F8EFF04FE43D
:10149000B72700201304046523A08774EFF06FEAD8
:1014A000F2406244B7E700E0096723A4E710056152
:1014B00082805D719307005F3ECA930700323ECC85
:1014C00085679387871F3ECEA9473ED09307B0021A
:1014D0003ED2B727550285073ED4B7170000938741
:1014E000870C3ED6B71700009387470B3ED8B71737
:1014F00000009387A7073EDAB7573412CAC0938714
:1015000087672A894808A2C4A6C286C62EC632C4E6
:10151000B68402DC3EDEEF0040782A8409E92246E8
:10152000B245A6864A85D1252A8426852D3722856F
:10153000B6402644964406496161828083A7418172
:1015400037177A0013070720B3D7E70293F7F70F8F
:101550002381F1861307803EB387E7022390F1864B
:101560008280B7F700E0D8438146799BD8C303C790
:1015700021863306A70290CBD4CB98431367170379
:1015800098C3D843058B75DF9843799B98C38280B5
:10159000797122D42A8411658545110506D6EFF0AC
:1015A000AFFF930700202312F100371501408D474C
:1015B0003EC44C00E147130505803EC6EFF06FDEE8
:1015C00022C837440140B70708000C0813050480FF
:1015D0003ECC02CA231E0100EFF09F991305048040
:1015E00085459D34B250225445618280011126CA3E
:1015F000B744014022CC4AC84EC606CEAE893289D5
:10160000014493840480634A2401F24062444A8581
:10161000D2444249B249056182809305000426857F
:10162000EFF0FFA47DD9B387890083850700268565
:101630000504C205C181EFF0FFA2F1B71387C18194
:101640001C43B76600209386063F3E95636BD5002A
:10165000B70601209386068063E5A60008C33E8591
:101660008280FD57EDBF73251034828073252034AE
:101670008280732530348280EFE29FBB9387019391
:10168000D85788D313674700D8D7118993874197D4
:101690009C4F1384419701CD99C3014582975C4CBF
:1016A00099C30145829705454D206FE0BFBA99C3A4
:1016B000054582975C4CF5DB05458297FDB7B7265B
:1016C000002003A706742320050019CFA165014659
:1016D0009385053013080030B70800801C4363D79A
:1016E000070019C223A0E6740145828033F3B700D6
:1016F000631D030119C223A0E6748A07C983F11789
:101700001CC11C475CC1054582802320170105468A
:101710005847E9B7EFE2DFB183C7418693F7F70F88
:1017200081E785472382F18683A7419982976FE0FD
:101730007FB283A74199014581CB83A7817089C777
:101740009843634307008847828003A701889387F3
:10175000819188A3239107002392070098C7A38053
:1017600007008280EFE2DFAC1384019A5C404111F4
:101770006C001385019A3EC623220400EF10C04876
:10178000B2476C001385019A5CC05C443EC6EF1002
:10179000A04741016FE01FAC93878191982319E323
:1017A00088C7828098479306703E3307E54063F10F
:1017B000E602EFE2FFA7BA2388C7914663F6E60088
:1017C000014561376FE01FA90507BAA3613FDDBF7F
:1017D0008280EFE2FFA52A840145853F93878191AE
:1017E00001C8054798B3094723AEE1946FE09FA66F
:1017F000A3800700E5BF828003288503630B0802EE
:10180000EFE21FA3FC5D014791C705074207418333
:101810009C43DDBF83A7050891C7050742074183A5
:101820009C43DDBF814601468145029801456FE03A
:101830007FA20145828001458280EFE2DF9D5C420C
:1018400000490329C500AA8488239C33328AA20751
:101850005D8DEF10302E9355650093F5C503B305EC
:10186000B0405285EF20106141E919C0DC4499E78E
:101870005285EF20106705456FE03F9D3307240137
:10188000D28781497D17B627CC43B699C209A29663
:1018900093D90901636AD704814603D8A700139539
:1018A000060141813306D40063620505328415A028
:1018B0003385D50008211306140008A06373C70000
:1018C000904485063284AA27139606014182E3617B
:1018D000A6FE9C43CDFB5285EF20B0609C4C80C897
:1018E000BE9923AC340141BF8146F1BF3385D50099
:1018F0000821850608A255B70145BDBFEFE2BF919B
:101900002A843285105C411104480328C40019EE72
:10191000B3059800FD1501C93A86368999C0631947
:101920000800EF20105C41016FE03F920444CDB706
:10193000AA878149B62703A84700B699C209A69687
:1019400093D9090163EBD508814603D3A700939887
:10195000060193D808013387D40063E26808BA848B
:101960002DA0B308D80083C8080013871400238073
:10197000140163F3E50018448506BA8483D8A700F0
:10198000139706014183E36E17FD9C43C5F732C6EA
:10199000EF203055056703288403CE8732466373F2
:1019A0003701856713970701418363020804834564
:1019B0001900834709001444A205DD8D83472900DF
:1019C0002285C207CD8F83453900E205DD8D02985F
:1019D0001C44232C04001CC8B9B7814645B7B30882
:1019E000D80083C80800850623001701B9BF1C4C26
:1019F00004C83E9718CC05BF1C4963830712EFE269
:101A00003F80B28A2E892A84630606108329C50086
:101A100003C76502BE99938BF9FF719BC209035CF2
:101A20008600B2842383E502914C138B419793D9AE
:101A30000901B22403AD44003387C70063F1EB0A08
:101A400003270B01098B51CB139A0701135A0A0183
:101A5000B38D4941C20D93DD0D013E856E86EA8549
:101A6000EF60302EBA241C44B306B7416350D00255
:101A7000330737413A9A420A135A0A013E85528681
:101A8000B305BD01EF60F02BB30745018440D5F0ED
:101A9000184C1CC856853A9C232C8401EF207044B6
:101AA0005C44184C4A85998F2316F902EF30A01D2B
:101AB00001456FE0AFF83306ED0010229386170062
:101AC00090A363F3DB0014440507B687B224931692
:101AD0000701C182E3E1C6FE55BF0147C5BF63F9F7
:101AE000CC023E85EA85EF60D025BA24B307E50035
:101AF00071BF3306ED001022050790A2AE24131625
:101B000007014182B386E700E365B6FEB687BDBF35
:101B10000147EDB70145D1FE2E85EF30C06051BFC2
:101B20007D558280EFE2CFF02E84B7250000AA8495
:101B30009385859F2285EF308024B715000022858C
:101B40009385857FEF300024B72500002285054668
:101B500093856583EF30C0239C20014593E7870080
:101B60009CC06FE02FEF19C93305A040A56793878C
:101B700047291375F50F3E95082182800145828023
:101B800081471397070141836313E60082803387FF
:101B9000F50014233307F500850714A3DDB7EFE242
:101BA0002FE99307C003B387F502376400201307BA
:101BB000043B2A89AE841306C00381451304043B09
:101BC000BA973E85EFE0CFE9630709001306C0032B
:101BD000CA85EF6010179305C003B385B402A295C0
:101BE0009C459CC9DCC96FE0EFE6EFE2CFE22A8AB0
:101BF0004111AE89B284814561461385C1A436C6C0
:101C0000EFE00FE61146D28513850193EF60701364
:101C1000138901931146CE8513054900EF607012B8
:101C2000B24619461305C900B685EF6090111384BA
:101C3000019395ECB7070001FD171CC4814483C7CD
:101C4000318663CDF402EF10204985475CD01567DB
:101C500093874192130707E298C31167130787A977
:101C6000D8C3254798C7014541016FE00FDE1146F3
:101C7000A68513058400EF60D00CC9B793F5F40F67
:101C80000145313F850465BF18419387419298C350
:101C90005841D8C3184598C782801855B757341291
:101CA000938787676314F710EFE2EFD61C512A84FD
:101CB00025456385070E130640048145138501936E
:101CC000EFE00FDA1306C002814513854197EFE07C
:101CD0002FD91306C002A28513854197EF607006C5
:101CE0009389419703A749014A869387419725EB3A
:101CF000A56603D7462793864627AE222E97CE2287
:101D0000F6222E9736979316270163DB0608D8CB69
:101D1000D84B9356E700FD8A89EAB746F8FFFD16CF
:101D2000758FB7060500558FD8CBD84B9356370122
:101D3000FD8A89EAB746F8FFFD16758FB706500091
:101D4000558FD8CBD84B9316670063CA0600B706E9
:101D500000FEFD16758FB7060014558FD8CBD853EB
:101D600011E7371700001307E76BD8D3D44B0145B1
:101D700013D7E6007D8BA381D1869387019398CFFB
:101D800013D736017D8B130620033307C702D8CF44
:101D900013976600635407000947B8C36FE0EFCAA2
:101DA000F976FD16758F8966558F95B71305F00F77
:101DB00082804945828083A701883E9523A0A1881F
:101DC000828003C63186B76700209386073B0147B0
:101DD0009387073B6317E60081476313F7020145CA
:101DE000828003A807036317A80009C50545EDD93C
:101DF00098A1828005071377F70F9387C703D9BF90
:101E0000D05A6319A60019C50545F9D993E707F813
:101E10009CA18280850793F7F70F9386C60375BF51
:101E2000EFE26FBF376900202300050003C731864A
:101E300041119307093B81441309093B631797003C
:101E40001305000241016FE04FC09387C70383A6CB
:101E500047FE63820616850493F4F40FC5B783A783
:101E600001936C003EC6EF20F03A11469305C40280
:101E70006800EF60006D6C004E85EF20903B13060C
:101E8000C0033386C402B72500009385A5834E8521
:101E90004A96EF20F03B95476C00232834031CD072
:101EA0001385019AEF005056A6852285CD3901454C
:101EB00051BF0947639BE708EF50903AAA8963092D
:101EC0000510930AC4021146D6856800EF6060676A
:101ED000324A370500F0EF100049337AAA0037057F
:101EE00000E0EF104048630CAA029385019A680055
:101EF000EF10900F0DE583A7019312346C004E850F
:101F00003EC6EF50B0121DE1D68511466800EF6065
:101F1000406352306C004E85EF50502C39A0123483
:101F20009385C1844E85EF50701019C12D3919BFAA
:101F30001306C0033386C402B72500009385C58FFE
:101F40004E854A96EF507031B9B70D471305100210
:101F5000E39AE7EEEF30E0505C4412346C001EB9B7
:101F600083A70193AA893EC6EF2090402A8A11C513
:101F70004E85EF30401B528555BF9305C003B38596
:101F8000B4024E85CA95EF20505FB71500004E850C
:101F90009385657FEF20705F9547A685228523286E
:101FA0003403232A34031CD0DD3E6C001385019AD0
:101FB000EF009045EDBD04A1DC4DC4C12E84E39A31
:101FC00007EE03458402EF20F031AA89E31905E802
:101FD00045458DBDEFE2CFA54EB56EB52A8499C1BA
:101FE000EF20704A83476402228593E7270023038A
:101FF000F402EF40D07505456FE0CFA583C7318669
:102000006370F5041307C0033305E502B7670020CA
:102010009387073B3E95584D232C050050C50CC5B2
:102020000CC94CC98D47631DF700085911C9EFE26F
:102030002FA093150601C1810EB9693F6FE08FA1F2
:102040008280EFE24F9D9306C003B306D502B764CA
:102050000020B2899387043B104223A00900BE965A
:10206000985295476315F71A2A89694545CE03ABFF
:102070008600D846AE8A03AA8601CC4A5A97938432
:10208000043BAE877D1763734601328A3384450172
:1020900063830A14637BE400914663F84601528629
:1020A0005685EF60004AA287A1A083A64198858249
:1020B000858A638006120D8F1304170063738A00EC
:1020C0005284914763F2870622865685EF60604707
:1020D000DA87637F440133858A00914733048A405D
:1020E00063FB87042286DA85EF60A045B3078B0087
:1020F0001307C0033307E90223A049012697104FB5
:102100005CCB3306464110CF01E61C475CCB1CCBB1
:102110009307C0033309F9028D47CA94D84C630D65
:10212000F70C01456FE06F9213160401418256854A
:10213000EFF01FA571BF131604014182DA85EFF09D
:102140003FA46DB7902385072380CA006373F7000F
:10215000DA8713861600E37D46F990238507A3806E
:10216000CA006373F700DA8713862600E37246F924
:10217000902385072381CA006373F700DA871386EB
:102180003600E37746F790238507A381CA0063737F
:10219000F700DA8713864600E37C46F513861700BE
:1021A0009C232382FA006373C7005A8693875600E4
:1021B00063F24705930716001022990AA38FCAFEFF
:1021C0006373F700DA879906E3F446F3E3EC46F726
:1021D00005B78146E5BF6375E4009146E3E546ED4A
:1021E000814631A085076373F700DA878506E39B94
:1021F00046FFFDBDB287EDBDCC4488583386C5404F
:102200004206418272B5E39EC5F0E93319BF5D45D0
:1022100011BFB76700209387073B81C91307C0032D
:102220003307E5023E97584B98C11307C0033305A7
:10223000E502AA97884F8280EFD29FFC00422320BC
:102240000600411171C8AA8A2E8B6945A1C5930762
:10225000C003B387FA02376500201307053BB28934
:10226000930B053B0149BA9703AC0703938701938E
:10227000BC43138A0193898B99E31309700C930C67
:10228000900C130D805C050942091359090163166E
:102290009901014541016FD07FFAA28463748D00DA
:1022A0009304805C939504010146C1810145EF20B0
:1022B0002048AA8D25C548412686DA85EF6060282A
:1022C000EE856285232E0A02EF20D0002AC66E8595
:1022D000EF2020410327CA03B24705C71305C003F7
:1022E0003385AA0223A009005E951821136707040D
:1022F00018C11305A00FE3DF07F83E85EFF0BF8696
:1023000051BFE3CD07FC83A70900058C269BA69748
:1023100023A0F9002DF8B5BF6945ADBF45459DBF68
:10232000EFD29FEE0042232006004DCCAA87AE8A52
:102330006945B1C11305C003B387A7023765002003
:102340001305053BB2890149AA9783AB070393871D
:102350000193BC43138A0193898B99E31309700C91
:10236000130C900C930C005C0509420913590901E8
:102370006315890101456FD0BFECA28463F48C0022
:102380009304005C939504010146C1810145EF204F
:10239000203A2A8B31C948412686D685EF60601ADB
:1023A000DA855E85232E0A02EF5020622A8D5A8537
:1023B000EF2020338327CA0399CB23A009001305FC
:1023C000A00FE35A0DFA6A85EFF0EFF96DB7E34617
:1023D0000DFE83A70900058CA69AA69723A0F900F5
:1023E00041F449BF694541BF454571B7EFD25FE44C
:1023F0009147AA840021638FF50263ECB7008547FB
:102400006386F5028947136424006383F5026FD065
:102410007FE4C1476383F502930700046386F502F6
:10242000A147E396F5FE1364840019A01364140019
:1024300080C0F1BF13644400E5BF48591364040130
:1024400065D9EF20504EEDB713640404D5B7EFD231
:102450003FDE41119305F100AA84A3070100EFF0CC
:102460005F9615C5808793178401E18763D40702BF
:102470001374F4071307C0033304E402B7670020A2
:102480009387073B3E94232A040223200402410140
:102490006FD05FDC83C73186E37BF4FE1307C00394
:1024A0003307E402B76600209387063B1389063B97
:1024B000BA97D04F0D47E31CE6FC84281306C003EF
:1024C00081453E85EFD0DFD9DD1493F4F40F054745
:1024D000636C9700C145193F9307C0033304F402AE
:1024E0004A942328040255B718211367070418C11A
:1024F000E5B73767002083C631861307073B81475E
:10250000638DF6001307C703032647FC11CA9387A0
:102510000193D85713670701D8D703C5C1958280A7
:10252000850793F7F70FE9BFEFD29FD0D93723AED6
:1025300001946FD03FD283C73186637FF500930744
:10254000C0033305F502B76700209387073BAA97BE
:10255000882323A0070082800145828003C631863C
:10256000B76700209387073B014795456313E60053
:10257000828094536398B600944F89C6942393E65F
:10258000460094C305071377F70F9387C703F9BF76
:1025900083A74195858B91CFEFD29FC9EF20702EF5
:1025A0001385019AEF00B028EF00503D453F6FD0F2
:1025B0007FCA8280EFD2DFC4832906002320060071
:1025C000638E090EAA87AE8A6945B9C51305C00393
:1025D000B387A702376500201305053B328B014AFC
:1025E000AA97805B93870193BC43138C0193898BDB
:1025F00099E3130A700C8144930C900C114D1389CC
:102600004197FD5D050A420A135A0A0163189A01AF
:1026100083270B00D5C301456FD05FC21C4863916F
:10262000A70B83270C04898B91C39D37035764073D
:1026300019E34545D5B783270901858B99E3E36AFB
:1026400037FF832749006373F700BA87CE8B63F3A4
:102650003701BE8B2285EF40900F83270901139627
:102660000B014182858B854691E38146D685228583
:10267000EF403004AA8422858DE4EF40500D83277B
:102680000B00B3897941AA84DE972320FB00DE9AF0
:10269000E38309F883270901858BADF7EFF0AFCC11
:1026A000A5BF6399B401EF40900A83270901858B88
:1026B000B1FB41B7EF40B0092685CDB76945A9BF49
:1026C0005D4599BF9307C003B307F5023767002044
:1026D0001307073BBA9703A8070215476307E800EB
:1026E000DD47232006003E858280EFD27FB4D84F9D
:1026F00019E7EFF07FB4AA873E856FD0BFB5894751
:102700006315F700EFF0DFC1FDB78D469307A00F0B
:10271000E314D7FE4535C5B703C5019582809307FD
:10272000C0033305F502B76700209387073B3E954A
:102730001C5985CF145115475D456399E60285897B
:102740009A278DC1136787009AA713874192144374
:1027500023A0D70A5443184723A2D70A23A4E70A81
:10276000014582805D9B9AA7E5BF5D458280EFD2DF
:102770003FAC1304C0033304850237650020130502
:10278000053B41112A9404585D458DCC185095475E
:102790005D456319F7025C54232A0402B726000042
:1027A0003EC65230938646B26C002685EF20504FCD
:1027B0002A8901CD2685EF2010174A85232004029F
:1027C000EFF06FBA41016FD0FFA883C764020145E3
:1027D00093F7F7FB2383F402F5B703A581983581BE
:1027E000058982809387019305474111C8CB94DB0B
:1027F000D0DB8CDFD8D741018280054723A6E19644
:102800008280EFD2FFA203A6019883A6018213174C
:1028100086016187630B051483C751866148894827
:102820003388070336980323C80063101315034346
:1028300015008348050003280800220333631301B1
:1028400083482500C20833E3680083483500E20866
:10285000B3E86800639B0811E207E1873E856FD00B
:102860007F9FB3885702B69803AEC8006319060766
:1028700063170E061398870113588841850793F74D
:10288000F70FE3E0C7FE6317060193F81500FD5745
:10289000E38608FC8989FD57F1F19377F80F636BA4
:1028A000C8009377F30F6367C300FD57E378C7FA57
:1028B0009377F70F61473387E702BA9623A606009E
:1028C00001CD103118212206598E38214207598E28
:1028D00038316207518F98C2238806000DA863140F
:1028E0007E040DC9834E1500034E0500A20EB3EE03
:1028F000CE01034E2500420EB36EDE01034E3500BD
:10290000620E336EDE0183AE08006315DE01A38222
:10291000F18699B783C80801E3E2E8F713978701C6
:102920006187468FA1BFE31B8EF415C5834E15004A
:10293000034E0500A20EB3EECE01034E2500420E5B
:10294000B36EDE01034E3500620E336EDE0183AEE0
:102950000800E30EDEFB83C80801E3E1F8F31393FC
:10296000870113538341C68F11BF3A883A83814F41
:10297000014F8147E1428543094421B7EFD2BF8926
:1029800098319C2122075D8FBC21C2075D8FBC312D
:10299000E207D98F58416319F7000545EFE07FE35F
:1029A000D9573E856FD07F8AE5DF2E842A89AA8594
:1029B0002285B289368AEF0030637DF11C30042015
:1029C000370500F0A207C58F2420C204C58F24302C
:1029D000E204DD8CEF003019E98C370500E0EF00F0
:1029E0009018E38FA4FAD2852285213DAA87E34A75
:1029F00005FAE147B307F50203A501823E95894731
:102A00005CC5232A25019387590013079500942359
:102A10007D1714B39386F7FF6396F900230805002A
:102A2000814741B7B687E5B703A5019803A801829E
:102A30000147E14809430546130EF00E6363A70002
:102A40008280B3061703C2969C2ACC46850793F76B
:102A5000F70F9CAA63986500636AFE000507137769
:102A6000F70FE9BFE39CC5FEE37AF6FE23A6060056
:102A7000F5B715C9CC41D82DBC3D22075D8FDC3D93
:102A8000C2075D8FFC2DE207D98F5841B98F1845D9
:102A9000F98F91EBEFD2CFF9138675008146ED05E2
:102AA000F13D6FD02FFB8280630F0514EFD2AFF69C
:102AB0003A269307A00241113289AE89AA8463E8BD
:102AC000E7004A85EF10F04141016FD00FF8404216
:102AD0000545034A04017C34220A336AFA00EF00F8
:102AE0009004E310AAFE034A44013C3813054060F9
:102AF000220A336AFA00EF001003E314AAFC034A27
:102B000024011C38856A220A13850A80336AFA0078
:102B1000EF007001E317AAFA034AE4005C3413855E
:102B20006A80220A336AFA00EF00E07FE31BAAF80A
:102B3000130AD4011146D2856800EF509020D4408A
:102B400013067401B5C20347840283477402220747
:102B50005D8F83479402C2075D8F8347A402E2071B
:102B6000D98F6393F60485466C002685013D854A1E
:102B70007C284838A2075D8DEF00E07A8547630C1A
:102B8000F5028947E31FF5F26C002685EF10A0538C
:102B900003A7C1A41DD79387C1A4DC47E38307F231
:102BA0006C002685829731BF81466C002685EFF048
:102BB000FFDC814A75BFE3860AF00945EF00A07685
:102BC00048B8218168A81146D28513057402EF50D8
:102BD00050179385440011465285EF509016930785
:102BE000640093855900F82BFD17FD15A380E702BB
:102BF00098B39831F8BBF8B3E317F4FE9C4CCA8540
:102C0000268582977DBD8280EFD2EFE02A89AE894A
:102C100001469305B0020D45EF1090317D5455CD1E
:102C20004041AA840545EF00007048B8218168A89A
:102C3000930609039307640015479385418413861F
:102C4000C1837D5503C80600FD17FD16A38B070140
:102C50003388E50003480800A38007033308E60033
:102C6000034808007D17A380070103C81600A3834B
:102C70000701E319A7FC1146930549001305D40188
:102C8000EF50300CCE85114613057402EF50700BD7
:102C90000545EF00406968B48569218108A813855E
:102CA0000980EF00406808B8218128A8130540601A
:102CB000EF00606728B8218148A813856980EF007C
:102CC00080668327890148B4218168A4A6854A8546
:102CD00082972A842685EF10D02022856FD0EFD6E8
:102CE000EFD26FD32E842A89AA852285B289EF007C
:102CF000B02F01C559556FD04FD51C300420370572
:102D000000F0A207C58F2420C204C58F2430E2043E
:102D1000DD8CEF004065E98C370500E0EF00A06432
:102D2000E38AA4FC18301C2022075D8F3C20C207D8
:102D30005D8F3C30E207D98FD5DF85452285EFF0E6
:102D40005FACE34A05FAE147B304F50203A7018249
:102D5000138A018285472697544791EA5CC7EFF0B2
:102D6000DFA9A2854A854D35E38709F831A0E388BC
:102D7000F6FE7D55E38509FE83270A000947A697DD
:102D8000D447E39AE6F603A44900A507930609038E
:102D90001307640090237D17FD1710B39022FD16D2
:102DA00070B3E319E4FE056513050580AD2B832799
:102DB000890148B4218168A4CE854A85829725BFC0
:102DC000EFD26FC5AE8441112A89BD452685328474
:102DD000EF10500A631B0510CA852285EF00D02032
:102DE000631205101C3083490400370500F0A20768
:102DF000B3E7370183492400C209B3E7F9008349E7
:102E00003400E209B3E9F900B92BB3F9A900370599
:102E100000E0912B1020143038203C306399A90831
:102E200013958600518D4207598DE20785456C84C4
:102E30005D8D9305E0054C853D2341811375F507B4
:102E4000C88508301C2022055D8D3C20C207C98F33
:102E5000283062055D8D012B2181488608301C20B9
:102E600022055D8D3C20C207C98F283062055D8D2B
:102E7000DD29C8863C00C040950793060903130767
:102E8000640090237D17FD1710B39022FD1670B3D8
:102E9000E319E4FE05651305058071218327890187
:102EA00048B4218168A4A6854A8582970DA8A20608
:102EB000D18E4207558FE207D98F03274900B98F7A
:102EC00003278900F98F99C78327C900715581CBE2
:102ED0001304C9002686A2854A85EFF07FE04101F0
:102EE0006FD0AFB69387C18379B77955CDBFEFD295
:102EF0002FB45C412A84AE84C837FC27A2075D8DBD
:102F00001D219307058091CB8567938767806305B3
:102F1000F5022285EF10E07C29A8A2852685EFF036
:102F20005FB5C5552285EF10E07465F5A68522854D
:102F3000792101456FD00FB222869385B402268590
:102F4000EFF09FB6FDB7EFD20FAD2E894A85FD5544
:102F50003164EF10207213041435EFF0EFFB118988
:102F60003DC17D142DC0EFE0CFFCAA897DD5AA8795
:102F7000CA84014495E89307C00322856374F40072
:102F80001305C0034205CE854181EFE0AFF803A7EA
:102F900001889387818815C785454A8598C3EF10B6
:102FA000606D01456FD06FAAB224CC403E85EF50D2
:102FB0004059BA2484403A944204B307E500418062
:102FC00055BF0547D1BF5155F1BF99472305F502BC
:102FD00083A5818919478147B386F5009022B306FE
:102FE000F5008507A385C602E398E7FE9307C05D59
:102FF0001EB593073003A308F5028280EFD24FA3DA
:103000001387819D58D11D67130757E63AB93737A3
:103010000000130707DC58C937370000130767F4AF
:1030200018CD232E0500553701456FD0AFA2EFD242
:103030008F9E83A78199AA891385C1899384C189A9
:1030400082978C40C1C983C741861384C18993F795
:10305000F70F81E785472382F1868505C2050D4676
:10306000C1810D4503294400EF10806C2A843DC1C5
:10307000FD55EF102060A284B224C840CA85EF50ED
:10308000404CBE2484403E99E5F8B727002003A7B2
:103090000774B7060080854514C35847228523A0CE
:1030A000E774EF10205D5C40C837FC27A2075D8DF8
:1030B0009D2C9307058091C7856793876780631868
:1030C000F50083A70901CE852285829701C5228557
:1030D000EF1020616FD06F97EFD2EF931384818947
:1030E0009387C1931CC0938901899387019323A07F
:1030F000F9009384C188938741939CC041119387C1
:103100008193138941892320F90002C202C402C6B7
:10311000EF10801383A5090011464800EF5060426C
:103120008325090011462800EF50A0418C4011462C
:103130006800EF5000410C401385019A19461305B1
:10314000B502EF5000401385019A23A0018C23AEF5
:10315000018AEF10405137380000B7370000740083
:1031600030004C001308E8EE9387C7FF0147138532
:10317000019AEF10A04941016FD02F8DEFD24F8BF4
:10318000938701889C4341113EC6EFF0EFD8118927
:1031900063040512938741889843B24613840188DB
:1031A000998E03A7C19405836376D700324798C3ED
:1031B000EF20A00B9384C1879840B247998F1307E3
:1031C000703E6375F700B525B2479CC09387818632
:1031D0009843B246998E0567130777386376D70010
:1031E000324798C3EFF05F84938741A6D84711CF49
:1031F000138781871043B246918E1306703E637623
:10320000D600B246DC4314C3829783A7C1A4B1C3DE
:103210009387418794433247158F9306F07C63F977
:10322000E600324798C39387C1A49C4B91C3829711
:10323000938701879843B246998E3D671307F7A598
:103240006379D70032479384C1A498C3DC4891C303
:10325000829732459384C186EFE00FD49C40324779
:103260001D8FBD679387F7A563F6E700EFE08FCF6B
:10327000B2479CC003C74186BE841377F70F15C3BE
:1032800003C741861377070C1DEB83A7019999C3E8
:1032900005458297184023A2E18A93070004238200
:1032A000F186138781880C4381C903A681701C4273
:1032B00063C207062320070041016FC0BFF903C79F
:1032C00041861377070415C783A6418A18401389DE
:1032D000418A158F93064006E3F5E6FC83A7019922
:1032E00099C3014582971C402320F900930700F8F9
:1032F0007DB703C7418662076187E35407FA83A657
:10330000418A1840158F93064006E3FCE6F82382B5
:10331000018641BF14408D8ECD45E3FFD5F8860769
:1033200085831CC241BF9317850021815D8D4205B5
:10333000418182809317850021815D8D4205418105
:1033400082801357850193178501D98FB706FF0037
:1033500013178500758FD98F4167130707F02181F7
:10336000798D5D8D8280EFC2BFECEFF09FFD6FC065
:103370007FEEEFC2FFEB03A4018CAA8401EC03A54E
:10338000C18B11C5EF10802E19C103A4C18B2285FA
:103390006FC05FEC2285EF10602D05C198309C2036
:1033A00022075D8FBC20C2075D8FBC30E207D98F3A
:1033B0005840B98F1844F98FF9DB0040C1B7EFC20C
:1033C000BFE44041AA84AE891C300820A2075D8D6D
:1033D000EFF05FF631814205418191476306F500C8
:1033E0002685EF10003031A41C300820A2075D8D27
:1033F000EFF05FF419813C30137AC5032820A2074F
:103400005D8DEFF03FF3BE242A89E3EB47FD9E2458
:10341000E3E8A7FCD2852285EF40102D71F1CA8523
:103420002685EF10A044370500F0EFF0DFF33705F5
:1034300000E0EFF05FF34E89054B930B04014A85E2
:10344000EF10C02211E563130B12032909000DA22E
:1034500093074900EDDB83264900F5D618381C2870
:1034600022075D8F3C28C2075D8F3C38E207D98F69
:103470006382F604CA855E85852E0DED1C38834A6D
:103480000401370500F0A207B3E75701834A24017E
:10349000C20AB3E7FA00834A3401E20AB3EAFA0047
:1034A000EFF07FECB3FAAA00370500E0EFF0BFEBD6
:1034B000E39BAAF858345C2422075D8F7C24C20762
:1034C0005D8F7C34E207D98FB9C3CE851305C40064
:1034D000212EE31705F05C34034AC400370500F0E1
:1034E000A207B3E74701034AE400420AB367FA00C0
:1034F000034AF400620A336AFA00EFF0DFE6337A37
:10350000AA00370500E0EFF01FE6E30BAAECE309A1
:1035100009EC03497400682022093369A900116588
:103520007D15EFF05FE03375A90011C52685ED2606
:10353000AA8461C14041CE852685EF10204755E918
:103540001C340824A2075D8DEFF0DFDE1375F50F44
:1035500099476303F50AC5476309F5088547631270
:10356000F50ACE852685EF40405961A003A9018C5C
:103570006314390103290900014BE31209EC1C34DF
:103580000824A2075D8DEFF0FFDA1375F50FC5472C
:10359000631EF500B3074401A823BC33A2075D8D69
:1035A000EFF05FD993074004630DF502854A1C34A0
:1035B0000824A2075D8DEFF0FFD71375F50FC547FF
:1035C0006319F508229A83473A0003452A00A207A7
:1035D0005D8DEFF03FD69307C076631CF5064E89EC
:1035E0003DB7E39809F2814AD9B7CE852685EF40E9
:1035F000600001456FC0DFC4CE852685EF20D01C5A
:10360000CDBFCE8513050401C522E31B05DC1C38A4
:1036100003490401370500F0A207B3E72701034976
:1036200024014209B367F90003493401620933698F
:10363000F900EFF05FD33379A900370500E0EFF030
:103640009FD2E30FA9D8C0C089452685EF40E06F1F
:1036500041BBE3910AE669B3EFC21FBBAA89428965
:10366000630F0612AE8AD1453A8AB284B68B3E8B7E
:10367000EF10400079576311051203A44900A20B13
:103680001C340824A2075D8DEFF0DFCA1375F50F17
:1036900033657501EFF03FC91357850018B408A4CE
:1036A000EFF05FC921814205418122053365650143
:1036B00042054181EFF03FC798309C2008A42207C3
:1036C0005D8FBC20218108B4C2075D8FBC301165BD
:1036D00013050550E207D98F13D787001CA818B827
:1036E00013D70701E1833CB838A83365AA00EFF08F
:1036F0009FC308A0218108B003D58900138A818A5D
:10370000EFF07FC228A0218128B003550A002303CF
:103710000400A3030400EFF01FC183570A0048A070
:103720002181850748B02310FA0063810A0203C78C
:103730001A0083C70A0022075D8F83C72A00C207C9
:103740005D8F83C73A00E207D98F99E713074900D5
:10375000814719C38327490013D787005CA458B455
:1037600013D70701E18378A47CB423050400A305E3
:103770000400D1452285EF40207728A4218128B478
:103780008357890285C303D7890063FDE700268636
:10379000CA854E85B12B2A873A856FC07FAA4441DE
:1037A000C104F9BF832749012686CE854A858297C1
:1037B000DDB7EFC2FFA701112A8432852ECE36CCA9
:1037C0003ACA3EC832C6EFF0DFBA09CDC247524707
:1037D000E2463246F2452A882285EFF0FFE705618E
:1037E0006FC05FA77155E5BF18311C2122075D8F9F
:1037F0003C21C2075D8F3C31E207D98F9386F7FFEA
:1038000075576366D70203C715030145098B0DC3BE
:10381000D841630FF70094453D8F758F11EB13C5A9
:10382000F6FFE98F3385A7401335150082800545E3
:103830008280EFC27F9D03A4C18AC544014B1389D6
:10384000C18A19E06FC0DF9FFD1493F4F40FFDD817
:103850007C3C032C040091C7FD177CBC228B628446
:10386000CDB783294400814A03A549005C31582122
:10387000A207D98F85EF18311C21514622075D8F91
:103880003C2193058400C2075D8F3C31E207D98F4C
:103890005CC0EF40104B85454E85EF40404C4E8557
:1038A000EF104002AA8A4E85EF00B06383294400DE
:1038B00063960902032709001C40631CE4042320CB
:1038C000F900A2851545EF00F0441387A18A1E2355
:1038D0005A84B38A57412310570149B703A74900B7
:1038E0004E851C33034A0700A207B3E74701034A8A
:1038F0002700420AB367FA00034A3700620A336AB4
:10390000FA00EF00307CAA9A4E85EF00905DD289D4
:1039100045B72320FB0075B7EFC21F8F44412A89AA
:103920009C308820A2075D8DEFF0DFA01981137510
:10393000C503D1476310F526FC30E820A2075D8D52
:10394000EFF05F9FBC302A8BA820A2075D8DEFF0BF
:103950007F9E9C30AA8C8820A2075D8DEFF09F9DF2
:103960002A8C4A85EF00107683A7419803D7A18A55
:103970002A8D8D832A97FD8B9389A18A63ECE7209A
:1039800003A4C18A814A138AC18A1DE81545EF0044
:10399000B0362A8463000520714681451305440032
:1039A000EFC01F8C8D477CBC83270A0023208A0030
:1039B0001CC05146A68513058400EF40903895AC95
:1039C000D834DC2422075D8FFC24C2075D8FFC34D1
:1039D000E207D98F58486316F70298389C282207C7
:1039E0005D8FBC28C2075D8FBC38E207D98F184CA9
:1039F0006319F700DC30D4205A24A207D58F630660
:103A0000F720A28A004051B7CC4203C8550003C337
:103A10004500220833686800637C060D93D5860054
:103A200094A38CB393D50601E182ACA3B4B3630E27
:103A3000072A74336C23A206CD8E6364D6146362A6
:103A4000A814935689002300270114B39356090143
:103A50001359890134A3A3012701782C014B058B4D
:103A6000630F0718638D081858404443D830D4209A
:103A70002207558F6315071894339823A206D98E11
:103A8000B8234207D98EB8336207558F61E75E2CA1
:103A900003C904005146D1075EAC9C3093058400F5
:103AA0002685A207B3E7270103C924004209B367AB
:103AB000F90003C9340062093369F900EF40702846
:103AC0004A2CEFF05F86A8A02181A8B023830400D0
:103AD000A383040023850400A3850400D145268523
:103AE000EF408040A8A42181A8B4032B4400D5A0B6
:103AF00063090609F43103C36500A206B3E6660054
:103B00006361D60801CB742378332207558F630392
:103B1000E8008148983194212207558FB421C206CC
:103B2000558FB431E206D98E2E8765AA9356890047
:103B30002300270114B3935609011359890134A3B3
:103B4000A3012701742378332207558FE307E6F09A
:103B5000814821B75443EC23F833DC32D0222207CA
:103B6000A2074D8FD18F631AF7029C329822A207C9
:103B7000D98FB8224207D98FB83262075D8FB687D6
:103B800031B74A85EF00105483D709003385A74029
:103B90002390A9004A85EF00D034014B8DA0B15588
:103BA0004A8583244900EF00F02CCA855A85EF002E
:103BB00030539C3003C90400A207B3E7270103C9AF
:103BC00024004209B367F90003C93400620933696C
:103BD000F900E31609FC03270A001C406314E40201
:103BE0002320FA00A2851545EF00D0125A85EF0078
:103BF000704D83D709003385A7402390A9005A85CB
:103C00006FC00FE423A0FA00F1BFFC30E820896BFD
:103C1000A2075D8DEFF00FF2FD1B337575014205B4
:103C2000418101E96A24EFF0EFF033757501E31289
:103C300005D883D709003E9D2390A901FC30E820D8
:103C4000A2075D8DEFF00FEF9317250163C2070206
:103C500013153B017C2C4D810E05135C6C006695A1
:103C6000137CCC0393E71700330585417CAC4AAC49
:103C700083244900BC30A820A2075D8DEFF08FEBB4
:103C80009C302A8B8820A2075D8DEFF0AFEAFC30D4
:103C9000AA8BE820A20793DB6B005D8DEFF08FE924
:103CA0004E054D81131635003305CB0013FBCB03B6
:103CB000832749003305654142051357860041813A
:103CC0005440D8B313578500F8B323800700A3806E
:103CD000070023810700A3810700D0A3E8A385483C
:103CE0000147E39306D2E31307E423222401B5B38B
:103CF000EFC20FD1032C4500011132CA03477C00EB
:103D0000AA8D03456C00220783DB8502598DAE8C9A
:103D1000EFF04FE28966B377D500138ACBFEA14658
:103D2000334ADA0283D48D0009677D173EC63379A2
:103D3000E500B1144209C20413590901C1800144CC
:103D4000514D3ACC420A135A0A0193163A009397FE
:103D50000601C1833EC89387DBFE3ECE89E4014560
:103D600005616FC0AFCDE247A68A337BF900B24749
:103D700033EB6701F24763C6F400C24A8967336BCD
:103D8000FB000146D1450945EF00901AAA8939C9BF
:103D900048415146E285EF40C07A03A64D0083AB0F
:103DA00049006A9623A2CD0003D6AD00B306A64112
:103DB0002395DD00568D63090D0403D4AD006373B4
:103DC0008D006A844204418001E483AD0D00E5B7B3
:103DD000814509460D45EF00B015AA8511E54E85D0
:103DE000EF0030107D55ADBF03A64D0002A522A502
:103DF00050C14E85EF00D02EB3068D40139D0601B5
:103E0000135D0D01E3130DFC5A85EFF0CFD1238331
:103E1000AB002181A383AB0013854A014205418198
:103E2000EFF06FD02381AB002181A381AB00D1459E
:103E300023850B00A3850B005E85EF40E00A03A7F6
:103E40004C0152462385AB002181A385AB00CE8572
:103E500066850297B384544152994E85C204420943
:103E6000EF003008C18013590901228DC5BD3C29DE
:103E70006385B7002CA9A309050082805E2D184D2B
:103E8000B306F7002388B60E938627008507C2077E
:103E9000C18356ADBA972388C70E82805A2D1C4D18
:103EA0009306170056ADBA972388B70E82805E2D11
:103EB000184D13D68501B306F7002388C60E9386E6
:103EC0001700C206C182BA9613D605012388C60E12
:103ED00093862700C206C182BA9613D6850023882E
:103EE000C60E938647008D07C207C18356ADBA97A9
:103EF0002388B70E828015C15E2D184D130630043D
:103F00009386170056ADBA97FD562388D70E5E2DBF
:103F10006376F60093F6370091E28280938617006D
:103F200056ADBA972388070EDDB7630C0516EFC2AE
:103F30002FB003290502DD5763020916AA84014642
:103F4000930540130145EF00A07E232AA9002A878C
:103F5000FD5763050514834639019387418281E645
:103F60009443850694C3404388438547232C8900A6
:103F70002320A9001CA01CB099473CA0A301040069
:103F8000EFF02FBC9357850048A05CB09357050114
:103F900061817CA068B003248901294723040400BF
:103FA000A304040023050400A30504002306040061
:103FB000A306040023070400A30704008347290184
:103FC0006388E700F11793F7F70F0547636AF70077
:103FD000DC205CA4DC305CB4FC207CA4FC307CB431
:103FE00023080400A308040023090400A309040013
:103FF000230A0400A30A0400230B0400A30B0400FB
:10400000230C0400A30C0400230D0400A30D0400E2
:1040100083C5A40281474146139707014183814626
:104020006376B7003387F4008346B7023307F400A2
:1040300054AF8507E392C7FE1307C4029307C40673
:10404000230007000507E39DE7FE1307C40E238046
:1040500007008507E39DE7FE375582631305353674
:10406000EFF02FAE935785002306A40EA306F40E9F
:10407000032689019357050161812307F40EA307E5
:10408000A40E231E0900814713074004B306F6005F
:104090002388F60E8507E39BE7FE81473E856FC0C8
:1040A0006F9BD9573E85828011CDEFC26F9800512A
:1040B00001C8484811C13525232A0400232C0400D7
:1040C0006FC04F99828063000518EFC26F96005150
:1040D000630904163828A1476315F71698319C2107
:1040E00022075D8FBC21C2075D8FBC31E207D98FEB
:1040F00018546398E714AA84B1452285EFF03FD79E
:104100002685EFF09FE263190512054693055003DB
:104110002285EFF0BFD691452285EFF03FD81146BA
:10412000930520032285EFF07FD50854EFF0AFA36D
:10413000AA852285EFF0BFD711469305600322853B
:10414000EFF0DFD34850EFF00FA2AA852285EFF001
:104150001FD61D469305D0032285EFF03FD25E2C7B
:10416000184C05462285B306F7002388C60E138631
:1041700027004206418252AC9386170083C5B402E1
:10418000C206C182BA962388B60E93863700C2064D
:10419000C18256AC83C5C4023A96BA962308B60EBD
:1041A000138647004206418252AC83C5D4023A9638
:1041B0002388B60E93865700C206C18256AC83C5CB
:1041C000E402BA962308B60E1386670042064182BF
:1041D00052AC83C5F4029D0732972388B60E5EACBD
:1041E00083C704032308F70EEFF0FFD04E2C484896
:1041F0009385050FC205C181952D034784021C4C90
:104200004C484840D8A70347940203A94400D8B7B4
:104210000347A4029306300413860185F8A70347D9
:10422000B402F8B723A204002687EF30C0692685C0
:1042300023A22401EFF05FE73C3885073CB88547AF
:104240007EAC6FC02F818280EFB29FFE0128B92C17
:1042500083A7C1A691C382976FB0DFFF37270020E5
:1042600013077774719B23AAE18A83A7C19723114F
:1042700007008D07F19B93960701C182BA9716A399
:104280002302070023ACF18A0546D0A396A3B6A368
:1042900023A8E18A828049C183A7418B636EF5061A
:1042A00083A5818B637AB50683A6018B130685FFF0
:1042B000230E05FE1387018B6373D60010C383564C
:1042C00085FFBE966304D60203C846006310080249
:1042D000638ED5000C436393B60010C38E22231C5B
:1042E000B5FE9622B305F640BE96AEA28355A5FF55
:1042F000B386B7006302D60203C84600631E0800F7
:10430000032807006313060114C3035785FF9AA20D
:10431000035785FFBA97AEA382808D05C205C18180
:10432000F199C205C1813147AE8763F3E500B1471A
:1043300003A6C197C207C1830D06719A6360F60A8E
:1043400003A7418B636DE50883A6818B6379D5084C
:10435000930685FF835885FF998EC206C182938597
:1043600088FF958DC205C18163EAF5066389F5066C
:104370003303170103484300631408029385860042
:104380001388018BAE97032E0800C207C1838358A0
:104390000300B305F70063166E022320B80015A0D2
:1043A0001388470163ED050393858600AE97138854
:1043B000018BC20703230800C183B305F700E3EEB6
:1043C00065FC23901501B6A123820500231CF5FE90
:1043D00096216306D60036973EA3828001458280EF
:1043E00029C51307350042074183719B420741836A
:1043F000B146BA876373D700B14703A6C197C20716
:10440000C1830D06719A01456362F60203A7018B11
:1044100083AE418B9385018B3303F640B306D741BE
:10442000C206C182615E63E4660001458280338515
:10443000DE0003484500835805006317080633086B
:10444000DE4046986362F80613834701636268049E
:10445000A107B697C207C1833388FE002310180155
:104460002311D8002302080085461EA154A18356BB
:1044700008006304D600F696BEA26319A70083A6BF
:10448000818B8147502301EE91C398C12105828021
:1044900085475CA1DDB71A2385477697E5B7E39C8E
:1044A000E6FEEDD794C1DDB7C686B5BF83A5818290
:1044B00083A6C182B74700209387F795F19B1387A6
:1044C00081A11385060103D80500232007000146BA
:1044D0006318C800890611078905E396A6FE828045
:1044E000832807000506420623A0170183D806008B
:1044F0001CC34182C697E9BF9D4763EBA7000A052D
:10450000938781A1AA97884309C5184198C38280DF
:104510000145828089C993172500138581A13E95A5
:104520001C419CC10CC18280EFB2FFCE98319C210E
:10453000AA8422075D8FBC212E84C2075D8FBC3107
:10454000E207D98F5841639FE70018301C202207EB
:104550005D8F3C20C2075D8F3C30E207D98FDCC005
:104560006FB0BFCE03A5C18C01499309400605C1B8
:104570001841DC40032AC5006311F7048545EF00AC
:10458000F0509307190093F7F70F63F7290383A7F8
:10459000418DC5DF984319CFD440631DD700143037
:1045A0001820A206D98E38204207D98E38306207EB
:1045B000558F98C3DC47F1BF3E8952854DBFEFB29E
:1045C0003FC7411132C636C42A84EFF0FFF53246A8
:1045D000A246814719CA18321C2222075D8F3C224D
:1045E000C2075D8F3C32E207D98F1CC4814799CA4C
:1045F00098329C2222075D8FBC22C2075D8FBC329D
:10460000E207D98F5CC441016FB0DFC4EFB25FC273
:1046100058CD1387418C83480700411123220500A0
:104620002324050023260500A308050223200502F4
:1046300013831800230A1503232805012A843EC684
:1046400023006700EFF0BFF7B2472285829711E998
:104650009387018C984318C080C3228541016FB0B5
:104660007FBF0144DDBF23AEA18A828003451503CD
:1046700005898280AA870145A5C5BDC3139605019A
:104680004182328863DB05003308C040BA27420804
:1046900013580801054563650705D427D84381C62B
:1046A0000D456391A6020D8F938607010545636949
:1046B000D702D8C3BA2701453297BAA79A273A96A4
:1046C00092A78280FD16C206C1828548054563E92E
:1046D000D80063D70500B62763E406010D8FD1BF6C
:1046E0008280EFB25FB301440DCDAA8501440D492C
:1046F0008549FE25FD17C207C183FEA59DE3DC2584
:1047000084411D4563882701FD17C207C18363EDFE
:10471000F9001945EFF01FE005041374F40FA685A6
:10472000E9F822856FB07FB22E85EFF0DFB6EDB7E6
:10473000EFB27FAE8547630DF50031C5894763064B
:10474000F5048D476305F504014422856FB0FFAF82
:104750008144D104B904C204C1808947B2892E8939
:1047600063E9C70269CA1945EFF01FD92A8469DDD8
:1047700023220500231425012315250123200500EC
:1047800023063501A5A0D144E9B78144E1B78144AE
:10479000E9B78D470144E31AF6FA1D45EFF0DFD57E
:1047A0002A845DD1B3079500CD07F19B5CC1938747
:1047B0004197DC438D04F19893879703F19B23067F
:1047C00035012320050023142501B38497409389E4
:1047D000419763739900CA84854726A47EA4B304D5
:1047E00099400D4A2289854A6347900085477EA4F7
:1047F000A306040099BF1D45EFF01FD009E52285EF
:10480000EFF03FEE91B783A749002316450123201F
:1048100005002320A9009387970306A5F19B63F366
:10482000F400A687130705013EA558C123175501BB
:104830009D8C2A8955BF9387350013853401F19BE0
:1048400071993E9542054181EFF09FB92A84E30DAD
:1048500005EEAA94CD04F19844C123142501231533
:104860002501232005002306050049B71E2563FA0C
:10487000F504EFB2FF9B2A84AE84B387F5402E2463
:1048800063E995025C2481EF638B95004C4022859F
:10489000818DA695C205C181EFF03FA82A8408400A
:1048A00026A406A419C1EFF0DFE3232004006FB0B3
:1048B0007F9A1A248D8CC2043E971AA4C1800040AE
:1048C0007DBF8280814719E13E858280850793F70D
:1048D000F70F0841CDBF01C57E2585077EA58280E3
:1048E00009CD99E182803A859E2516251841B69713
:1048F000C207C1831EA565FB0CC18280EFB25F9326
:104900002E84EFF0FFFD2285EFF0FFFC6FB09F9447
:104910003DCDEFB25F902A84AE845955ADC51A24BF
:104920009E256362F7060149014A8359A400BE240B
:10493000B3894941B387274163C9F90493990701B2
:104940004840CC4093D909015295CA954E86EF3024
:10495000503F4E9A3E24420A4E994209135A0A0188
:1049600013590901639447010040014ABE2463655D
:10497000F900844099CC0149BA249E246316F702B9
:104980009C409DC35D556FB05F8CC20955BF5955A2
:10499000828009C801493A241E246314F7001C4090
:1049A000F5F3C1F40145C5B77DF441B7EFB2BF8659
:1049B00003294500AA898347990003458900014AD4
:1049C000A2075D8DEFE01F97937AF50F03A4818C0A
:1049D00031099384818C01E401456FB01F871C2845
:1049E0000145639457035C488DC3084CCA864E86C4
:1049F000A285829719C963080A005C442326FA003D
:104A00009C4080C05CC4054581495C44228A71F5A4
:104A10003E84D1B7814799C998319C2122075D8F87
:104A2000BC21C2075D8FBC31E207D98F1CC1014593
:104A30008280814799C998319C2122075D8FBC21D2
:104A4000C2075D8FBC31E207D98F5CC1014582800E
:104A50004CC910CD8280EFB20FFCAE842A89D145BB
:104A60002685B289EFF01FC115C90146814505456C
:104A7000EFF01FCC2A8409E57D594A856FB0EFFC21
:104A8000A685EFF0BFE74E85EFE0BF8E19ED7159B7
:104A9000E30594FE2285EFF0DFC4C5B7B155268546
:104AA000EFF05FBD71F92684F9BFCA85630509007F
:104AB0008327090099E393054500834709010347CC
:104AC000A9008346B9002A884E862285EFE0DFB828
:104AD0002A897DBFEFB2CFF513064500EFF0BFF78F
:104AE0006FB04FF7EFB2CFF4AA840145EFF0DFA02B
:104AF0002A8411CD71468145EFB08FF6930700F8F7
:104B00003CB49387818C984304A880C358C4228501
:104B10006FB04FF483A6C18C03A6418E83A5418D4F
:104B200003D54183938741831307150013150701AC
:104B3000131807014181635308000565368719E79B
:104B4000328719EB2E8719EF8AA382800358C70199
:104B5000E30CA8FC5847E5B70358C701E306A8FCD7
:104B60005847C5B70358C701E300A8FC5847E1BF41
:104B70001C4963960710EFB20FEA4111AA843284F0
:104B800011E62EC6EFF01FF9B2452A8403A7418D26
:104B900031E703A7C18C25EB83A9018D1389018D12
:104BA0004E8759E783A7418ECDEB85C198319C2173
:104BB00022075D8FBC21C2075D8FBC31E207D98F10
:104BC00089C711462685EF30D017C2AC23A6340121
:104BD00023209900014541016FB02FE75E2F6392BA
:104BE0008702104359CED1CD94319C21A206DD8E8F
:104BF000BC21C207DD8EBC31E207D58FD9C3630269
:104C0000F608584771B75E2F63928702104335CA82
:104C1000ADC994319C21A206DD8EBC21C207DD8E78
:104C2000BC31E207D58FB1CF630DF6045847A5B765
:104C30005E2F63928702104329C6A1C594319C213F
:104C4000A206DD8EBC21C207DD8EBC31E207D58F06
:104C50008DCB6308F6025847A9B7DA2F631F870088
:104C600094319821A206D98EB8214207D98EB83145
:104C70006207558F94436386E600DC4735B74D5590
:104C80008280555589BFAA870358C5025459923B63
:104C90000C5583D807043305D84005822E953287FA
:104CA00063F3C8004687420741833307E540634505
:104CB00007002397070382803387D5406356E000BF
:104CC00023970702014582808D8EF6B7E5BFEFB2CC
:104CD0002FD65E352A84BE95C2051E39C1814EB5D8
:104CE00063F3B7005EB52285EFF0FFF91E388983C4
:104CF000634BF50083476402228593E72700230373
:104D0000F402EF20C0246FB0EFD4EFB26FD24111A4
:104D1000014409CDAA854841014411C52EC6EFF0D2
:104D20005F9CB2452A841145EFF0CFFE22854101F8
:104D30006FB04FD2EFB2CFCF014401E522856FB003
:104D40006FD10441EFF07FFC2A941374F40F268591
:104D5000EDB7EFB2EFCD41112AC61145EFF0CFF913
:104D60002A8401C9B2455146EF30A07D4840EFF09A
:104D70009FB6228541016FB0EFCD0CCD82802328F4
:104D8000B50882802326B5088280232EB50882804C
:104D9000232CB508A30EC50282801C490547637405
:104DA000F70429476381E704EFB28FC82A840325FB
:104DB000850809C5EFF0FF92232404080325440861
:104DC000FD577EBCEFF01FF7685C23220408EFF06C
:104DD0007FF603250408EFF0FFF5232E04062320B9
:104DE00004086FB02FC78280EFB28FC19387019301
:104DF0001387818D83CC87011C43256B850703A412
:104E0000C18C1CC393096006814A13890193938462
:104E1000818D138AC18C094D130B4B2C938B4185CB
:104E200009E803A4418E9384418E631C04226FB071
:104E3000EFC0FD1993F9F90FE38B09FE0346240532
:104E40001448854D6382CC02834D040B63800D10A2
:104E50000327C40AB386BB0183C6F6FF05072326D2
:104E6000E40A6378D70C814D18489946631DD70032
:104E7000105C9440918E032689016376D600938757
:104E80001D0093FDF70F1624014CA18A95CE914683
:104E90006305D7009D466319D7020328440A832679
:104EA000840A0325040A8325C901B306D802904069
:104EB000185C198EAA96B3D6B60263F9C61093870A
:104EC0001D0093FDF70F054C0325440819CD185C10
:104ED00094401946998E031704053307C70263E609
:104EE000E600EFF03FE52322040818488D466312E0
:104EF000D710145C9840158F8326890163E6E6106D
:104F000063940D108347C4030347D403850793F7C5
:104F1000F70F230EF40263EBE70083278409230EC7
:104F20000402639A07122285EF206002A28A40449D
:104F3000C5BD2326040A19476366B70193871D0080
:104F40002308F40A2285EF20C05D31BF0317E40374
:104F50006344070005077ABC03270408E30507F04C
:104F60008315E40303170405E3CFE5EE6384A6038A
:104F70000317C4048316E404B1470D87369793766C
:104F8000F60F63F3C700B146DA9694223317D700C1
:104F90002318E4048356A40503574406231F040280
:104FA00063F3E60036874207418383560404058392
:104FB000231EE4046376D70013971600231EE4042F
:104FC000231DD4042285EF20A03E79BD0347140B96
:104FD000014C330707032A973357B702E376C7EE2E
:104FE0002285EF20204E0347140B0507A308E40A8F
:104FF000E1BDA546E316D7F0185C9440998E0327CF
:1050000089010607E37ED7EE2285EFD04FC42285C3
:10501000EFF0BFD85C44638D0A0223A6FA00832711
:10502000C40981C7084CED558297630B0C005E30B4
:105030005A2C0C542850930644002286EF20002757
:10504000032CC400A2850945EFF0CFCC6284C9BB14
:105050002320FA00E9B7084CA2858297E30505EC06
:10506000F1B52285EFD0AFBE2285EFF01FD3032923
:10507000C400A285094523A024014A84EFF08FC90A
:105080006DB3EFB2EF9A03A4418E9384418E19E081
:105090006FB04F9C2285EFD08FBB2285EFF0FFCF02
:1050A0000329C400A285094523A024014A84EFF006
:1050B0006FC6F1BFEFB2CF971C412E846390B70447
:1050C000DC451CC1232604002285EFF01FCD1C48BF
:1050D00029476381E7020547638EE700834764023F
:1050E00013F7170001CB93E727002303F40222856F
:1050F000EF10F065232804006FB0CF9523A0F18E48
:1051000081461387018E89E7D5DE232007005DBF26
:10511000D0476317860091C21CC35844D8C75DB7F7
:105120008546B287CDB71C491D476365F70AEFB2C4
:105130002F9025678A071307472ABA979C432A842A
:105140008287EFD0CFB01387018D1C43639987000E
:105150005C441CC323260400A28509453DA823A066
:10516000F18E81461387018E89E7EDD62320070053
:10517000D5B7D0476317860091C21CC35844D8C71F
:10518000D1BF8546B287CDB7EFD06FACA28513856E
:10519000418DEFF03FF2A2850D45EFF0AFB701452D
:1051A00031A8EFD0CFAAA2851385C18CEFF09FF074
:1051B00065B78545EF10904E954701C96FB08F894F
:1051C0008545EF10B04D7DF9A5471CC82285EF102D
:1051D0001058F1B701458280EFB28F8541112E85BD
:1051E00011CE0E2632C6EFF09FAE32463285EFF07A
:1051F0004FCF81473E8541016FB0CF858147FDFA92
:10520000EFF07FF2AA87FDB7EFB28F8203A4C18CC3
:105210009304500619E06FB0EF830326840819CA7F
:10522000832704098146A2858DCF084C829719E116
:1052300023240408FD1493F4F40FF1DC8347640283
:1052400013F7170009CF93E727002303F402228501
:10525000EF10F04F83476402F19B2303F4024044B4
:1052600055BF0145EFF05FF7D9B7EFA27FFCEFF034
:10527000BFF91387C18D1C23850793F7F70F1CA374
:10528000858B99C3EFF05FB66FA0DFFCEFA2DFF76D
:105290001849A94741112A84631EF700AA8513857E
:1052A000418EEFF03FE1A2850945EFF0AFA6410145
:1052B0006FA01FF91C412E8B032905063EC65C41D9
:1052C00083298502035AC5013EC4835A45028324BB
:1052D000C509832B8501EFD08F971385C18CA285DB
:1052E000EFF05FDD0325040819C1EFF0BFA4685C8F
:1052F00019C1EFF03FA40325440819C1EFF09FA3A3
:10530000A2850945EFF00FA181C4ED555E85829419
:10531000E30F0BF8D687528734007000CE854A859C
:10532000EF10D07869B793870183884303A7818DF5
:105330003A9588C38280EFA21FEEAA840945EFF058
:10534000AF9B138941972A842DE183270901898323
:10535000858B89E7014422856FA03FEF83A7418EAB
:1053600003A6818D014581469389818DF9E301C5AD
:105370008545EFF0BFF10945EFF00F982A8415E558
:1053800083A7C18C03A50900FD1493F4F40F130641
:10539000F0078145C5EB09C485452285EFF01FEF75
:1053A0000945EFF06F952A8455D51306400B8145CA
:1053B0002285EFA0FFEA930700045CA88967231BFE
:1053C000F40681475EB47EB4E1773EA483274900AA
:1053D000130780216374F700930780212310F404DE
:1053E000C1677D577CC485472318F4047ABC231D0C
:1053F000F404EFF05FF383A7818D68D428D01CDC20
:10540000B75700009387871D2328F40803A741920C
:105410009387419268C82320E40AD8439C4728D840
:10542000230E04022322E40A2324F40AA308040A14
:105430001DB7985F3307E6406364D700BA863E85A0
:10544000DC472DB7D42B63ECD400636AD600985F99
:105450003307E5406365B7003686BA853E84DC478E
:1054600015BFEFA2FFDC13050004EFF0DFEC6FA027
:105470007FDEEFA2FFDB2A842E85EFD09FEF11CDD8
:105480001E3581CF938787FD3E87C207C183637333
:10549000F400228713140701418022856FA09FDB4F
:1054A000EFA27FD71849CD5455E7AE89DD54DDC151
:1054B0002A84B284110511463689EF3080085E2CAB
:1054C00046B081E7EFF00FE54AACEFF0DFE51E38BC
:1054D00028D07D155EB47EB42312F40668C828D89F
:1054E00003A5819723240402232A04029307802121
:1054F00063F4A70013058021420541812310A40411
:10550000CE85EFF01FF78547231DF404A94723102C
:10551000A4043305F50289471387018D1CC81C4379
:10552000232A2409231EA404639987025C441CC314
:105530009387C18C9843894680C358C485470147E7
:10554000014681452285EF10A051AA8401E52285FC
:10555000EF10F01F26856FA05FCF23A0F18E81464C
:105560001387018E89E7E9D623200700D1B7D047FA
:105570006317860091C21CC35844D8C755BF8546DF
:10558000B287CDB7EFA23FC91C49AA842E8AC8278B
:10559000DC37A2075D8DEFD0FFD9058929E9416984
:1055A000130909FC03270A0103A6C18FDE24543323
:1055B0004C23B297A206D58D7423C206CD8E6C33D0
:1055C000E205D58D8356CA00AE96B386D74063D523
:1055D00006028D8F6359F000918DC205C840C181CC
:1055E000CEA4EFF0AFA823A044016FA01FC6528540
:1055F000EFF04FF4014AC5BF5C374827A2075D8D25
:10560000EFD05FD3058915CD9C48C037C827220449
:10561000498C4A85EFD03FD19C48698CC827DC373C
:10562000A2075D8DEFD01FD11375E503136515003B
:10563000EFD07FCF9C48418D42054181C8A7218191
:10564000C8B703240A005285EFF02FEC45D4228A14
:1056500091BFEFA27FBB83C7C18E2A84C18B138900
:10566000C18FF1C78325090038558356450670550B
:105670003305B74083A7818E9384818E63440502EE
:105680006316B7003307F640634E0700631EF60249
:1056900003A5419078350348E500220733670701E9
:1056A00063F4E60203A5419078350348E5002CD465
:1056B0002207336707012312E4067CD411C703478E
:1056C000040B19C32308040A6C483387B740634EA0
:1056D000E02803D78190231A04066315072803578F
:1056E00044066854B2962A97631ED7260317E4032C
:1056F000634A07266398F526834784050D47850787
:1057000093F7F70F230CF4046378F7240357A405E9
:1057100083570404BA97C207C1836374F700231D3B
:10572000F4047C5C639B073670406316064003D626
:105730008190832709001454138A81906308067CA2
:10574000B385F6401387F5FF6347074605471D8F6E
:10575000118F36976341E046938781A3C443139723
:1057600005014183BE24938981A363D1B7449E245C
:10577000998FC207C183BA246344B742B305B040CE
:10578000C205C1852685EFE0FFEEDC4083D6C90067
:105790000327090023A4F9001C5436971D8F239674
:1057A000E90003A7090193D687002320F9005CA331
:1057B00054B393D60701E18374A37CB38326090015
:1057C0001854B387E64063CF0772523493871600AC
:1057D000998F918F6348F072639EE65A938781A3F5
:1057E00083D9C7009C4B938481A3C827DC37A207C9
:1057F0005D8DEFD03FB40D893335A0004E95420545
:105800005E3441812310AA0063FDA7089C48C82785
:10581000DC37A2075D8DEFD0FFB1058931C19C480F
:1058200083C9D700C827A209B3E9A90041651305B8
:1058300005FCEFD05FAF9C48B3F9A900C827DC375F
:10584000A2075D8DEFD01FAF1375E503EFD0BFAD9D
:105850009C4833E5A90042054181C8A72181C8B70A
:105860005E34DEA49C48C827DC37A2075D8DEFD0EC
:105870007FAC098901C5DE24FD17DEA4CE24C84013
:10588000EFE0DFFE9C4883D9C400C827DC37A207BD
:105890005D8DEFD03FAA0D893335A000AA99231062
:1058A0003A0183274408638D07329C48C827DC37B8
:1058B000A2075D8DEFD01FA8058963100532832AEA
:1058C0004408416B130B0BFC0325090003570A0026
:1058D0002A9763800A0803A60A014C325422A205C3
:1058E000D58D7422C206D58D7432E206CD8E83D555
:1058F000CA00B695B305B74063D90532158F635A10
:10590000E00483274408984B5C335423A207D58FC7
:10591000898FDEA49C48C827DC37A2075D8DEFD0B5
:105920007FA1098901C5DE24FD17DEA4CE24C8406D
:10593000EFE0DFF39C4883D9C400C827DC37A20717
:105940005D8DEFD03F9F0D893335A000AA992310BC
:105950003A012322540969A4E395E7DC2285EF107C
:105960005030C1B3230C04046DBB3450B386D74010
:105970006342D0128346640213F6460001CAED9AD0
:105980002303D4028356C405231DD4048316C40400
:105990000356E40442078D86B2962318D404835636
:1059A00064074183231AE4063697231BE40618484C
:1059B0007CC823090404230C04048D4763F1E70227
:1059C0000357A4058356C405835704046376D7029E
:1059D000BA97C207C1836374F700231DF4048327B9
:1059E000040885E383270408230E040293B71700F5
:1059F000B307F0407EBC35B3B387F702B3C7E70205
:105A0000C1BF984B48335C2322055D8D7C23C207C0
:105A1000C98F683362055D8DEFD0FF94832704083A
:105A2000AA8903DAC7009C4BC827DC37A2075D8D23
:105A3000EFD05F909C400D893335A0005295B3891B
:105A4000F9404E95E340A0FA8329040883A7090092
:105A50002320F4088357440785C383A70901C82777
:105A6000DC37A2075D8DEFD0FF8C058911C5835708
:105A70004407FD17231AF40603A54900EFE09FE44D
:105A8000835784073385A740231CA4064E85EFF077
:105A9000CFA7B1B7231A040669B1984B83A90400B4
:105AA00048335C2322055D8D7C23C207C98F683390
:105AB00062055D8DEFD03F8B7C5CAA8AB38959412A
:105AC00003DAC7009C4BC827DC37A2075D8DEFD0F7
:105AD0007F860D893335A0005295B389A940E3C56F
